:100000000C9443040C946B040C946B040C946B04DC
:100010000C946B040C946B040C946B040C946B04A4
:100020000C946B040C941D270C94FA2D0C94272F20
:100030000C946B040C946B040C946B040C946B0484
:100040000C946B040C946B040C946B040C946B0474
:100050000C946B040C946B040C946B040C94F029BA
:100060000C946B040C946B040C946B040C946B0454
:100070000C946B040C946B040C946B040C946B0444
:100080000C946B040C946B040C946B040C946B0434
:100090000C949F140C946B040C946B040C946B04E0
:1000A0000C946B040C946B040C946B040000000023
:1000B000003E5B4F5B3E3E6B4F6B3E1C3E7C3E1CEE
:1000C000183C7E3C181C577D571C1C5E7F5E1C0034
:1000D000183C1800FFE7C3E7FF0018241800FFE7EB
:1000E000DBE7FF30483A060E2629792926407F05AE
:1000F0000507407F05253F5A3CE73C5A7F3E1C1CC4
:1001000008081C1C3E7F14227F22145F5F005F5F83
:1001100006097F017F006689956A6060606060946F
:10012000A2FFA29408047E040810207E2010080874
:100130002A1C08081C2A08081E101010100C1E0C7F
:100140001E0C30383E3830060E3E0E060000000011
:100150000000005F00000007000700147F147F14F8
:10016000242A7F2A1223130864623649562050003D
:1001700008070300001C2241000041221C002A1C29
:100180007F1C2A08083E0808008070300008080814
:100190000808000060600020100804023E51494534
:1001A0003E00427F400072494949462141494D3352
:1001B0001814127F1027454545393C4A49493141B9
:1001C000211109073649494936464949291E000087
:1001D00014000000403400000008142241141414DC
:1001E0001414004122140802015909063E415D59C8
:1001F0004E7C1211127C7F494949363E41414122D1
:100200007F4141413E7F494949417F090909013EFA
:10021000414151737F0808087F00417F4100204021
:10022000413F017F081422417F404040407F021C33
:10023000027F7F0408107F3E4141413E7F0909094A
:10024000063E4151215E7F09192946264949493216
:1002500003017F01033F4040403F1F2040201F3FDC
:100260004038403F63140814630304780403615961
:10027000494D43007F4141410204081020004141A3
:10028000417F04020102044040404040000307084F
:100290000020545478407F2844443838444444284B
:1002A000384444287F385454541800087E090218F2
:1002B000A4A49C787F0804047800447D400020407A
:1002C000403D007F1028440000417F40007C0478BE
:1002D00004787C080404783844444438FC18242406
:1002E0001818242418FC7C08040408485454542486
:1002F00004043F44243C4040207C1C2040201C3C03
:100300004030403C44281028444C9090907C4464F9
:10031000544C44000836410000007700000041368C
:10032000080002010204023C2623263C1EA1A16112
:10033000123A4040207A3854545559215555794144
:100340002254547842215554784020545579400C19
:100350001E527212395555555939545454593955FC
:100360005454580000457C410002457D420001453F
:100370007C407D1211127DF0282528F07C545545D3
:10038000002054547C547C0A097F4932494949323F
:100390003A4444443A324A4848303A4141217A3A50
:1003A00042402078009DA0A07D3D4242423D3D401C
:1003B00040403D3C24FF2424487E4943662B2FFCCB
:1003C0002F2BFF0929F620C0887E09032054547979
:1003D000410000447D413048484A32384040227A4A
:1003E000007A0A0A727D0D19317D2629292F2826C7
:1003F0002929292630484D402038080808080808CF
:100400000808382F10C8ACBA2F102834FA00007B27
:10041000000008142A142222142A1408AA005500E5
:10042000AAAA55AA55AA000000FF00101010FF004C
:10043000141414FF001010FF00FF1010F010F0143F
:100440001414FC001414F700FF0000FF00FF141444
:10045000F404FC141417101F10101F101F14141490
:100460001F00101010F0000000001F101010101FCF
:1004700010101010F010000000FF101010101010DD
:10048000101010FF10000000FF140000FF00FF001C
:10049000001F10170000FC04F41414171017141494
:1004A000F404F40000FF00F714141414141414F7E7
:1004B00000F7141414171410101F101F141414F440
:1004C000141010F010F000001F101F0000001F1487
:1004D000000000FC140000F010F01010FF10FF14DA
:1004E0001414FF141010101F00000000F010FFFF84
:1004F000FFFFFFF0F0F0F0F0FFFFFF000000000052
:10050000FFFF0F0F0F0F0F3844443844FC4A4A4A8C
:10051000347E02020606027E027E02635549416372
:100520003844443C04407E201E2006027E0202998C
:10053000A5E7A5991C2A492A1C4C7201724C304A25
:100540004D4D303048784830BC625A463D3E4949AE
:1005500049007E0101017E2A2A2A2A2A44445F4456
:100560004440514A444040444A51400000FF010386
:10057000E080FF000008086B6B0836123624360650
:100580000F090F060000181800000010100030407E
:10059000FF0101001F01011E00191D1712003C3C44
:1005A0003C3C000000000000C201000100110011ED
:1005B000000C0000E100000A0025002500210000D9
:1005C0009600001900390039003600127A00001F29
:1005D000004600460044008070000022004D004D9F
:1005E000004A00004B0000360075007500720040A4
:1005F0003800004A009C009C009900802500007291
:1006000000EC00EC00E900C0120000E900DA01DAB9
:1006100001D70160090000D701B603B603B303B0E8
:10062000040000B3036E076E076B07580200006EEC
:1006300007DC0EDC0ED80E2C010000DC0EC11DC143
:100640001DBE1D00000000240027002A002D0030E0
:100650000000000000250028002B002E00310000C3
:100660000000002300260029002C002F00040404B1
:100670000404030405020202020403020202020649
:10068000060606060604040202020404080201101B
:1006900040804010204080408008020401804020BB
:1006A0001002011080102040400000000200080EDF
:1006B0000000030401000B00000000000000000027
:1006C00000000000000000070605040100080A0BF6
:1006D0000C0D090403090422034100720064007533
:1006E0000069006E006F0020004C0065006F006E16
:1006F000006100720064006F001803410072006422
:1007000000750069006E006F0020004C004C004333
:100710000012010002000000404123368000010168
:100720000200011201000202000040412336800055
:10073000010102000100C18081C1080B0002020218
:10074000010009040000010202000005240010015C
:100750000524010101042402060524060001070501
:10076000810310004009040100020A00000007058F
:100770000202400000070583024000000501090253
:10078000A1010901A100850105091901290315002D
:100790002501950375018102950175058103050108
:1007A0000930093109381581257F750895038106BF
:1007B000C0C005010906A1018502050719E029E766
:1007C00015002501750195088102950175088103C1
:1007D000950675081500256505071900296581002E
:1007E000C009040200010300000009210101000109
:1007F000226500070584034000010000000000009E
:1008000000002A2B2800000000000000000000006B
:10081000000000000000000000002C9EB4A0A1A277
:10082000A434A6A7A5AE362D3738271E1F202122B7
:1008300023242526B333B62EB7B89F8485868788B0
:10084000898A8B8C8D8E8F909192939495969798A0
:10085000999A9B9C9D2F3130A3AD3504050607085E
:10086000090A0B0C0D0E0F10111213141516171880
:10087000191A1B1C1DAFB1B0B500FE053B13462E67
:10088000C830D331F70511241FBECFEFDAE0DEBF49
:10089000CDBF15E0A0E0B1E0E0E8FBE602C00590C6
:1008A0000D92AE34B107D9F718E0AEE4B5E001C05F
:1008B0001D92AE3DB107E1F718E0C4E8D8E004C0EE
:1008C0002297FE010E947835CA37D107C9F70E94E6
:1008D000E62B0C94B3350C940000A0E0B0E0E3E705
:1008E000F4E00C948435EC01A880B980CA80DB80E8
:1008F000A114B104C104D10441F484E2A82E89ED0D
:10090000B82E8BE5C82E87E0D82EC601B5012DE1A3
:1009100033EF41E050E00E94473527EA31E440E000
:1009200050E00E94F3347B018C01C601B5012DE13A
:1009300033EF41E050E00E944735CA01B9012CEE87
:1009400034EF4FEF5FEF0E94F3346E0D7F1D801F79
:10095000911F97FF04C061507040804090486883A9
:1009600079838A839B839B01AC015F77B901CA01BC
:10097000CDB7DEB7EAE00C94A0350E946D0408956F
:100980008EEA92E00E946D0408956093AE02709327
:10099000AF028093B0029093B1020895FC018827C2
:1009A0009927E89421912032E9F3293010F02E3074
:1009B000C8F32B3241F02D3239F4689404C00E9400
:1009C0006B05820F911D219120532A30C0F31EF434
:1009D000909581959F4F0895FB01DC010D900020BB
:1009E000E9F7119701900D920020E1F70895FB01BE
:1009F000DC018D91019080190110D9F3990B0895B4
:100A0000FB01DC0101900D920020E1F70895FB014C
:100A1000DC014150504048F001900D920020C9F790
:100A200001C01D9241505040E0F70895FB019F0125
:100A3000E8944230C4F04532B4F44A3029F497FBCC
:100A40001EF4909581959F4F642F77270E94623501
:100A5000805D8A330CF0895D8193CB010097A1F70B
:100A600016F45DE251931082C9010C947305FA01EA
:100A7000CF93FF93EF93223044F1253234F5C22F08
:100A8000E894CA3049F497FB3EF4909580957095B0
:100A900061957F4F8F4F9F4F2C2F3327442755272A
:100AA000FF93EF930E942535EF91FF91605D6A33CC
:100AB0000CF0695D6193B901CA01605070408040DB
:100AC000904051F716F4CDE2C19310828F919F911F
:100AD000CF910C9473057AE0979F902D879F802D7E
:100AE000910D11240895DC01FC01672F719177238A
:100AF000E1F7329704C07C916D9370836291AE17D9
:100B0000BF07C8F308958091500590915105209139
:100B1000470730914807892BC9F42130310561F12D
:100B20002230310541F02115310541F4109246077C
:100B300010924507089584E090E020C023303105ED
:100B400041F510924807109247070895213031056A
:100B500081F0223031051CF4232B41F0089522301E
:100B6000310551F023303105A1F40DC081E090E052
:100B700005C082E090E002C083E090E090934607D9
:100B800080934507089584E090E090934607809312
:100B9000450708958130910501F56F5F7F4F31F56D
:100BA00088E097E06AE04DE020E00E94C22988E2F8
:100BB00097E00E940B178CE297E00E944E1685E6A4
:100BC00097E06CE00E94CF2480E997E068E070E055
:100BD00041E050E00E9459260895892B39F46F5F57
:100BE0007F4F21F488E097E00E944A28089580E032
:100BF00090E06FEF7FEF0E94CA05089581E090E0DA
:100C00006FEF7FEF0E94CA05089590934F05809380
:100C10004E057093C5026093C4020E94382A609307
:100C2000490770934A0780934B0790934C070895A8
:100C30000E94382A6093510770935207809353079C
:100C400090935407089580912E0790912F07892B38
:100C500051F40E94382A6093550770935607809389
:100C6000570790935807089585E697E062E04CE3B4
:100C700021E00E94B42381E090E090936407809388
:100C8000630790934F0580934E050E9423060895B5
:100C90000E94230689E090E065E070E00E9405066E
:100CA00008950E94230680914E0590914F0502976A
:100CB00061F40E94382A7093C5026093C40283E0F5
:100CC00090E065E070E00E94050608950E94382AD1
:100CD0006093490770934A0780934B0790934C07A2
:100CE00008950E94230680916307909164070197FD
:100CF00009F068C080914E0590914F0585309105AF
:100D000009F459C08630910558F482309105A1F05C
:100D10008330910509F44FC0019709F05DC04BC0C5
:100D20008730910509F447C08730910508F443C026
:100D3000089709F051C03FC00E94382A60934907C4
:100D400070934A0780934B0790934C0780916107FB
:100D500090916207892B19F483E090E002C084E04F
:100D600090E09093C3028093C20280912E079091ED
:100D70002F07892B49F08091C2029091C3020197FD
:100D80009093C3028093C2028091470790914807D5
:100D9000019690934807809347072091C2023091B3
:100DA000C3028217930724F0109248071092470756
:100DB0000E948305089582E090E065E070E00E9463
:100DC000050608950E9423060E94340681E090E003
:100DD00065E070E00E94050608950F931F930E943E
:100DE000382A7093C5026093C40205E617E0C80173
:100DF00060E070E040E050E00E94A01FC80164EF96
:100E000075E00E94282D1F910F9108950F931F9355
:100E100005E617E0C80168E170E04CE050E00E9490
:100E2000A01FC80160E071E00E94282D1F910F9162
:100E3000089585E697E060E070E040E050E00E94B1
:100E4000A01F85E697E06FE071E00E94282D809159
:100E50003A0790913B070197029728F485E697E0BF
:100E60006FE171E004C085E697E063E271E00E9403
:100E7000282D85E697E068E271E00E94282D85E63E
:100E800097E060E070E048E050E00E94A01F85E637
:100E900097E06AE271E00E94282D6091B40270919F
:100EA000B50285E697E04AE050E00E94152D85E600
:100EB00097E068E371E00E94282D85E697E060E006
:100EC00070E040E150E00E94A01F85E697E06BE3F0
:100ED00071E00E94282D80912E0790912F0790930A
:100EE000310780933007892B89F08091B40290916B
:100EF000B5028436910529F485E697E068E471E04F
:100F000009C085E697E06DE471E004C085E697E0EE
:100F100066E571E00E94282D85E697E068E271E0C1
:100F20000E94282D85E697E060E070E048E150E0FF
:100F30000E94A01F85E697E06AE571E00E94282DD7
:100F400020E080912E0790912F07892B09F421E052
:100F500020934407222329F085E697E069E671E0B3
:100F600004C085E697E066E571E00E94282D85E6DD
:100F700097E068E271E00E94282D0895CF92DF92F9
:100F8000EF92FF920F931F9305E617E0C80160E010
:100F900070E040E050E00E94A01FC8016CE671E0E4
:100FA0000E942B2DC8016EE671E00E942B2DC80116
:100FB00060E771E00E942B2DC80162E771E00E949A
:100FC000282DC80162E170E042E050E00E94A01FBD
:100FD000C80164E771E00E94282D9EE9E92E96E0A1
:100FE000F92EC801B7010E94282D8BE7C82E81E099
:100FF000D82EC801B6010E94282DC80162E170E018
:101000004CE050E00E94A01FC8016EE771E00E9412
:10101000282D80E190E0E80EF91EC801B7010E947A
:10102000282DC801B6010E94282DC80162E170E098
:1010300046E150E00E94A01FC80165E871E00E94EF
:10104000282D80E190E0E80EF91EC801B7010E944A
:10105000282DC801B6010E94282DC8016AE070E061
:1010600040E050E020E230E001E010E00E94122178
:101070001F910F91FF90EF90DF90CF9008952F92E6
:101080003F924F925F926F927F928F929F92AF9218
:10109000BF92CF92DF92EF92FF920F931F93DF9355
:1010A000CF9300D000D0CDB7DEB79A838983F62ED8
:1010B000E42E122F602F85E697E00E94A61F85E69A
:1010C00097E060E070E00E94AC1F612E7724CC2492
:1010D000DD24C618D7084F2C55244601840C951CD6
:1010E0005601FF2416012E0C3F1C1FC085E697E019
:1010F000B401A8010E94A01F85E697E069817A816A
:101100000E94282D8B819C8101969C838B830F5F8D
:101110001F4F6816790654F70894A11CB11C089457
:10112000811C911C6A147B0424F08101DC82CB8237
:10113000DDCF85E697E0B201A7010E94A01F85E6FA
:1011400097E061E070E00E94AC1F85E697E069815E
:101150007A810E94282D0F900F900F900F90CF91C1
:10116000DF911F910F91FF90EF90DF90CF90BF9094
:10117000AF909F908F907F906F905F904F903F9037
:101180002F900895CF92DF92EF92FF920F931F93CB
:10119000CF93DF93C7E0D0E085E697E0BE0146E05D
:1011A00050E02AE030E004E110E0B2E0EB2EF12C58
:1011B000A1E0CA2ED12C0E940B1C2C96CF37D10552
:1011C00059F72091B4023091B50280E790E0A9016F
:1011D000489F9001499F300D589F300D1124C9013F
:1011E00064E670E00E941235FB013796C9016CE994
:1011F0007FEF0E9412359B0127583F4F85E697E00D
:10120000BF0140E050E000E210E0EE24FF240E9425
:10121000081B85E697E062E070E042E050E028E7D6
:1012200030E00CE110E0F3E0EF2EF12C0E94581BAF
:1012300085E697E063E070E043E050E026E730E0C9
:101240000AE110E00E94581B85E697E068E770E02D
:101250004AE050E027E030E00AE010E0E2E0EE2E65
:10126000F12C0E940B1C8CE891E06AE04CE022E03B
:1012700001E00E943F088EE891E06EE64CE022E03B
:101280000E943F08DF91CF911F910F91FF90EF9047
:10129000DF90CF900895FF920F931F93CF93DF932A
:1012A000EC01F22E85E697E00E94A01F85E697E00C
:1012B0006F2D0E94A61F0130110531F485E697E0DD
:1012C000BE010E942B2D05C085E697E0BE010E945D
:1012D000282DDF91CF911F910F91FF900895EF92EC
:1012E000FF920F931F9315E6E12E17E0F12EC70131
:1012F00060E070E044E050E00E94A01FC70160E998
:1013000071E00E942B2DC70162E971E00E942B2D34
:10131000C70164E971E00E94282D86E991E06FE041
:1013200070E040E050E021E030E000E010E00E949A
:101330004B098CE991E06FE070E040E150E021E082
:1013400030E00E944B09C7016FE070E048E050E0D8
:101350000E94A01F0EEC16E0C701B8010E94282DC4
:10136000C7016FE070E048E150E00E94A01F005FFD
:101370001F4FC701B8010E94282DC7016AE070E025
:1013800040E050E020E230E001E010E00E94122155
:101390001F910F91FF90EF900895AF92BF92CF925F
:1013A000DF92EF92FF920F931F9383EA91E060E048
:1013B00070E042E050E021E030E000E010E00E9408
:1013C0004B0925E6E22E27E0F22E9EE6C92E96E096
:1013D000D92EC701B6010E94282D8DEAA82E81E0E2
:1013E000B82EC701B5010E94282D80EB91E060E086
:1013F00070E04CE050E021E030E00E944B0980E1D9
:1014000090E0C80ED91EC701B6010E94282DC70161
:10141000B5010E94282D8AEB91E060E070E046E182
:1014200050E021E030E00E944B0980E190E0C80EDE
:10143000D91EC701B6010E94282DC701B5010E941F
:10144000282DC7016AE070E040E050E020E230E083
:1014500001E010E00E9412211F910F91FF90EF9088
:10146000DF90CF90BF90AF900895CF92DF92EF9230
:10147000FF920F931F9345E6E42E47E0F42EC70139
:1014800060E070E044E050E00E94A01FC70164ECFF
:1014900071E00E942B2DC70166EC71E00E942B2D9C
:1014A000C70168EC71E00E94282D8AEC91E068E1A8
:1014B00070E043E050E021E030E000E010E00E9406
:1014C0004B093EE4C32E36E0D32EC701B6010E947D
:1014D000282DC7016FEC71E00E94282D82ED91E06C
:1014E00062E170E043E150E021E030E00E944B090E
:1014F00080E190E0C80ED91EC701B6010E94282DD8
:10150000C70168ED71E00E94282DC7016AE070E014
:1015100040E050E020E230E001E010E00E941221C3
:101520001F910F91FF90EF90DF90CF90089585E687
:1015300097E00E94F32210925E0710925D071092CE
:10154000640710926307089580912E0790912F07EA
:10155000892BD9F40E94382A2091550730915607DB
:101560004091570750915807621B730B840B950BE2
:1015700061567A4E8040904040F080916307909190
:101580006407019711F40E94970A08950F931F931F
:1015900005E617E0C80164E070E043E050E00E9417
:1015A000A01FE0914507F0914607EE0FFF1FE8549A
:1015B000FD4F60817181C8010E94282DC8016BED2B
:1015C00071E00E94282DC8016AE070E04DE050E013
:1015D0000E94A01FC8016DED71E00E94282D0E949D
:1015E000382A2091490730914A0740914B07509182
:1015F0004C07621B730B840B950B28EE33E040E025
:1016000050E00E942535DA01C90144E050E060E075
:1016100070E0481B590B6A0B7B0BC8012AE030E0D5
:101620000E94C62CC80163EE71E00E94282DC801FB
:1016300064E070E047E150E00E94A01FC8016EEE38
:1016400071E00E94282D1F910F910895AF92BF92D3
:10165000CF92DF92EF92FF920F931F9380915005EC
:1016600090915105892B51F58091B8029091B90262
:101670006AE070E040E050E021E030E000E010E09F
:101680000E944B098091BE029091BF026AE070E017
:1016900048E050E021E030E00E944B0980912E07A5
:1016A00090912F07892B09F041C08091C002909141
:1016B000C1026AE070E040E150E034C08091BA02BB
:1016C0009091BB026AE070E040E050E021E030E041
:1016D00000E010E00E944B098091BC029091BD0295
:1016E0006AE070E048E050E021E030E00E944B0901
:1016F0008091BE029091BF026AE070E040E150E04C
:1017000021E030E00E944B0980912E0790912F0735
:10171000892B61F48091C0029091C1026AE070E06F
:1017200048E150E021E030E00E944B092091C202E4
:101730003091C30280914707909148078217930721
:1017400024F010924807109247070E94830585E60F
:1017500097E062E070E046E050E024E030E00EE127
:1017600010E0EE24FF240E94081B0091470710910F
:101770004807A80193E0440F551F9A95E1F74E5F83
:101780005F4F83E0000F111F8A95E1F7F80134964F
:1017900085E697E063E070E023E030E00A5F1F4FEA
:1017A000A6E0EA2EF12C6F01E1E0AE2EB12C0E94F2
:1017B000831C1F910F91FF90EF90DF90CF90BF900F
:1017C000AF900895CF93DF93EC0180915A059091EB
:1017D0005B05019751F181E090E090935B05809368
:1017E0005A0580EC95E06FEF71E00E94000580ECF7
:1017F00095E0BE010E94EC0480EC95E06FEF71E093
:101800000E94EC0488E097E060EC75E00E94282DCF
:101810006EE170E080E090E00E94462A10925B0545
:1018200010925A05DF91CF910895FFCF0F931F9328
:1018300005E617E0C8010E945D22C80165E070E07E
:101840004AE050E00E94A01FC80161E072E00E94DF
:10185000282D89E092E00E94E20BC8010E94FF223D
:1018600060ED77E080E090E00E94462A81E090E021
:101870006FEF7FEF0E9405061092620710926107DA
:101880001F910F910895CF93DF93C0915005D09190
:101890005105C130D105A1F585E697E00E945D2292
:1018A00085E697E065E070E04AE050E00E94A01F06
:1018B00080E192E00E94E20BD0936007C0935F0743
:1018C0000E94382A6093590770935A0780935B07E8
:1018D00090935C0785E697E069E172E00E94282D0D
:1018E00085E697E00E94FF2260ED77E080E090E0DF
:1018F0000E94462A81E090E06FEF7FEF0E9405068C
:10190000DF91CF910895EF92FF920F931F9388E29A
:1019100097E00E9495178093B4021092B50288E276
:1019200097E00E949A17A0E0B0E0BC01CD010E94B0
:10193000DA3320E030E44CE952E40E94903420E0B5
:1019400034E244E759E40E9441337B018C01609307
:10195000240770932507809326079093270780918B
:10196000B4029091B5028536910534F084E690E09A
:101970009093B5028093B4028091B4029091B50225
:10198000C3974CF580912E0790912F07892B19F55D
:10199000C801B7012DEC3CEC4CE450E40E948C34BF
:1019A0001816ACF4C801B7012DEC3CEC4CE450E443
:1019B0000E94DC3221E137EC4AE35CE30E944133D0
:1019C0000E94A9337093B5026093B40204C01092D0
:1019D000B5021092B4028091B4029091B50218162B
:1019E00019065CF080912E0790912F07892B29F41E
:1019F00081E080932A070E94430C1F910F91FF9072
:101A0000EF9008950F930E94830C80912E07909180
:101A10002F07892B79F40E94C2088091B40290911B
:101A2000B5020A9724F48FE192E060E217C083E2E6
:101A300092E013C080912B078823B1F00E94C20866
:101A40008091B4029091B5028436910524F48AE223
:101A500092E068E203C088E491E060E34CE022E0B9
:101A600001E00E943F0832C085E697E060E070E048
:101A700044E050E00E94A01F85E697E063E372E037
:101A80000E94282D0E94382A20914007309141075A
:101A90004091420750914307621B730B840B950BD7
:101AA000615777418040904018F40E94382A0EC058
:101AB00085E697E060E070E044E150E00E94A01FFE
:101AC00085E697E064E472E00E94282D0F91089566
:101AD000AF92BF92CF92DF92EF92FF920F931F933C
:101AE000DF93CF93CDB7DEB7A6970FB6F894DEBFDE
:101AF0000FBECDBF5BE5C52E52E0D52E7E0108940A
:101B0000E11CF11CC701B6010E9400058E01075FB0
:101B10001F4FC801B6010E94000580915E0590919B
:101B20005F05A0916005B09161050196A11DB11DF1
:101B300080935E0590935F05A0936005B093610567
:101B4000B7014AE050E00E941605C801B7010E94A3
:101B500000054CE5A42E42E0B42EC801B5010E9458
:101B6000EC0438E2C32E37E0D32EC6010E9495174D
:101B700090E0B7014AE050E00E941605C801B701A5
:101B80000E94EC04C801B5010E94EC04C6010E9449
:101B90009A17A0E0B0E0BC01CD01A7012AE030E037
:101BA0000E943705C801B7010E94EC04C801B501C5
:101BB0000E94EC042CE2C22E27E0D22EC6010E9425
:101BC000C51690E0B7014AE050E00E941605C80132
:101BD000B7010E94EC04C801B5010E94EC04C601E3
:101BE0000E94C11690E0B7014AE050E00E9416053D
:101BF000C801B7010E94EC04C801B5010E94EC04C1
:101C0000C6010E94BD1690E0B7014AE050E00E9474
:101C10001605C801B7010E94EC04C801B5010E9475
:101C2000EC04C6010E94B91690E0B7014AE050E00A
:101C30000E941605C801B7010E94EC04C8016EE5B8
:101C400072E00E94EC04C8010E94E20BA6960FB657
:101C5000F894DEBF0FBECDBFCF91DF911F910F91E2
:101C6000FF90EF90DF90CF90BF90AF9008952091BC
:101C70005C0530915D058091B2029091B302281706
:101C8000390739F481E090E090936207809361070F
:101C900004C0109262071092610768EE73E080E062
:101CA00090E02FE037E240E050E00E949230DC010B
:101CB000CB019093B3028093B2026EEE76E04AE0DD
:101CC00050E00E94160588EF96E062E672E00E94FE
:101CD000000588EF96E06EEE76E00E94EC0488EF57
:101CE00096E00E94E20B08950E94382A20914D0749
:101CF00030914E0740914F0750915007621B730B74
:101D0000840B950B695873418040904018F40E94F1
:101D1000382A11C0A8958CE297E00E94EC160E9428
:101D2000370E0E94382A60934D0770934E078093B8
:101D30004F07909350070E94382A209162053091F6
:101D400063054091640550916505621B730B840B1C
:101D5000950B663071058105910518F40E94382AAB
:101D600008951092550510925405089581E08093CE
:101D70002A078091610790916207019719F40E94E8
:101D8000430C08958CE297E00E94DC168CE297E009
:101D900061E00E94A2160895CF93DF93EC010097B3
:101DA00019F487E060E002C087E061E00E94822BC6
:101DB000D0936207C0936107D0935105C09350053B
:101DC00010924807109247070E94830581E090E037
:101DD0006FEF7FEF0E940506DF91CF91089580910C
:101DE0005F0790916007892B41F10E94382A20916A
:101DF000590730915A0740915B0750915C07621B6D
:101E0000730B840B950B6956724480409040A8F088
:101E100080E090E00E94CC0E1092600710925F0765
:101E200080912A07813049F48CE297E00E94DC1609
:101E30008CE297E061E00E94A21608950F931F9331
:101E400005E617E0C8010E945D22C80165E070E068
:101E50004AE050E00E94A01FC8016BE672E00E94B9
:101E6000282DC8010E94FF221092600710925F0780
:101E700081E090E00E94CC0E60ED77E080E090E0A1
:101E80000E94462A81E090E065E070E00E9405062D
:101E90001F910F91089580914507909146078230D8
:101EA0009105A1F0833091052CF4009749F001973A
:101EB000A9F409C08330910561F0049779F40CC04E
:101EC0000E941E0F08950E94430C08950E94160C54
:101ED00008950E94970A08950E94B60E08950F93E0
:101EE0001F93CF93DF938C01EB0177FD4FC080915F
:101EF000C4029091C50297FD49C00E94382A2091E2
:101F0000490730914A0740914B0750914C07621B9B
:101F1000730B840B950B4091C4025091C50228EEBF
:101F200033E0F9014E9F90014F9F300D5E9F300DC1
:101F30001124442737FD4095542F261737074807AB
:101F4000590718F00E94382A21C0D093C502C093C7
:101F5000C4020E94382A6093490770934A0780930D
:101F60004B0790934C0780914E0590914F05039736
:101F700049F40E944B0F81E090E065E070E00E9420
:101F8000050604C010934F0500934E05DF91CF91D5
:101F90001F910F91089585E697E00E945D22809140
:101FA0004E0590914F058430910509F454C0853059
:101FB000910570F48130910529F181309105D8F0B7
:101FC0008230910509F43FC0039709F04FC03EC02D
:101FD0008730910539F18830910538F485309105C5
:101FE000E1F0069709F042C022C08830910521F146
:101FF0000997E1F533C00E94060781E090E062E0B6
:1020000070E032C00E94020D8091610790916207DA
:10201000019761F585E090E025C00E94350A87E0D0
:1020200090E020C00E94CD0986E090E01BC00E9495
:10203000BE0788E090E016C00E946F0981E090E042
:102040006AE070E011C00E94260B0AC00E94C60A16
:1020500082E090E007C00E94ED0602C00E941907CE
:1020600081E090E065E070E00E946F0F85E697E008
:102070000E94FF2208950F931F930CE217E0C801FE
:102080000E94721664EF71E080E090E00E94462AA0
:10209000C80160E04FE00E947816C80161E00E942C
:1020A0000817482F407F4460C80161E00E947816FD
:1020B000C80162E040E40E947816C80164E04CEB7D
:1020C0000E9478161F910F9108950F931F9329E294
:1020D00088E190E00FB6F894A895809360000FBE59
:1020E0002093600087E061E00E94F52A80E090E0A4
:1020F0000E94CC0E83EF97E00E94DB1388E097E00C
:1021000040E855E260E070E00E94472788E297E0EF
:102110000E9454170E943B1064EF71E080E090E051
:102120000E94462A86E695E06BE572E00E94000573
:1021300005E617E0C80162E04CE321E00E94B42309
:10214000C80161E070E00E94AC1F82E090E09093D3
:10215000C5028093C4020E94382A60934907709395
:102160004A0780934B0790934C0710924F051092AB
:102170004E0510925E0710925D0781E090E090930B
:1021800064078093630700E917E0C80161E776E020
:102190000E949E25C80161E576E00E94A625C8013F
:1021A00066E676E00E94AA25C80168E476E00E940F
:1021B000A2251F910F91089580912E0790912F07CE
:1021C0009093B7028093B6028091300790913107C7
:1021D00090933507809334078CE297E061E00E948A
:1021E000081780933807109239078CE297E00E9415
:1021F000041790E09093370780933607AC01447042
:102200005070559547955595479550932F07409396
:102210002E079C0120733070E4E035952795EA95F0
:10222000E1F7309331072093300720913807309140
:1022300039072073307074E0359527957A95E1F76A
:10224000309333072093320766E0969587956A9519
:10225000E1F790933B0780933A078091B602909103
:10226000B702892BC9F441305105B1F40E943B10EB
:10227000109244078091630790916407892B11F4B1
:102280000E9434060E94382A6093400770934107E9
:1022900080934207909343078091B6029091B702D2
:1022A000019789F480912E0790912F07892B59F47B
:1022B0000E943B108CE297E00E94C91681E0809357
:1022C00044070E94230680912E0790912F07892BA7
:1022D00089F1209134073091350780913007909132
:1022E00031072817390759F00E94382A60933C07B4
:1022F00070933D0780933E0790933F071BC00E9459
:10230000382A20913C0730913D0740913E0750917B
:102310003F07621B730B840B950B6D5D754080400E
:10232000904028F40E94382A10922B0703C081E0C5
:1023300080932B0780912E0790912F07892B31F4E2
:1023400080914407882311F40E943B108CE297E0AF
:102350000E94C91681E0809344070895CF93DF93CC
:10236000EC01DC010D900020E9F71197A81BB90BD7
:10237000B0935705A0935605FC01EA0FFB1F82910D
:102380003196282F332727FD309520533040309346
:102390005905209358051A161B06E4F532978081DB
:1023A0008132C1F52A30310500F584E0220F331F58
:1023B0008A95E1F71297C901825B994FBE01AD0181
:1023C0000E940705E0915805F0915905A4E0EE0F31
:1023D000FF1FAA95E1F78091560590915705E80FE8
:1023E000F91FE45BF94F108240C02A303105E9F54E
:1023F00083EF96E0BE0144E050E00E940705109292
:10240000F70683EF96E00E94CE0490935D058093DB
:102410005C052BC00E941806CE0162E772E00E94A4
:10242000F704009719F40E94680D1FC0809161079E
:10243000909162070197C9F484EF95E0BE010E9474
:10244000000580912E0790912F07892B41F48091F0
:10245000630790916407892B11F40E94340684E08D
:1024600090E090934F0580934E05DF91CF910895B2
:102470000F931F93DF93CF93CDB7DEB7CA55D040EC
:102480000FB6F894DEBF0FBECDBFAC01DC010D90DE
:102490000020E9F71197A81BB90BBE016F5F7F4FB2
:1024A00021E030E08D010150104009C0FA01E20F37
:1024B000F31F8081FB018193BF012F5F3F4F2017E6
:1024C0003107A4F3FE013197EA0FFB1F1082CE0102
:1024D00001960E94AE11C65ADF4F0FB6F894DEBFC8
:1024E0000FBECDBFCF91DF911F910F910895CF9374
:1024F000DF9388E097E00E949726C1E0D0E03EC0DD
:1025000088E097E00E9453282091520530915305AE
:10251000F901EA59FA4F8083F9013196F093530596
:10252000E09352058E3701F5809154059091550541
:102530000197B1F4EA59FA4F108286E695E00E94BD
:10254000381286E695E06BE572E00E940005109275
:10255000550510925405109253051092520504C06F
:10256000D0935505C09354050E94382A60936205A4
:1025700070936305809364059093650588E097E008
:102580000E947428892B09F0BBCFDF91CF91089569
:1025900080E997E00E94AE250E9477120E94DC102D
:1025A0000E94CB0F0E94740E0E94A40A0E94EF0E9C
:1025B00008952CB5382F33702C7F322B3CBD2DB5B0
:1025C00090E0959587959595879581702E7F822BC4
:1025D0008DBD089581E161E00E94822B81E161E07F
:1025E0000E94F52A8CB580618CBD8CB580648CBD51
:1025F0008FE061E00E94F52A80E161E00E94F52A07
:10260000089581E08093F2076093CF071092F0075E
:102610001092F10708952091CE0730E08091CD0708
:10262000281B3109C90108954091CD078091CE073B
:10263000481718F02FEF3FEF0AC0E42FF0E0E35502
:10264000F84F8081282F30E04F5F4093CD07C901BC
:102650000895E091CD078091CE07E81718F0EFEFCD
:10266000FFEF06C0F0E0E355F84F8081E82FF0E07F
:10267000CF01089508951092F6071092F50788EE9D
:1026800093E0A0E0B0E08093F7079093F807A09361
:10269000F907B093FA0784EE94E09093F4078093DF
:1026A000F3070895CF92DF92EF92FF920F931F935B
:1026B000CF93DF937C016B018A018091F20788231D
:1026C000A1F0C0E0D0E00DC0D701ED91FC91D601A2
:1026D000AC0FBD1F0190F081E02DC7016C910995F1
:1026E0002196C017D10780F304C0CB01642F0E944C
:1026F0008414C801DF91CF911F910F91FF90EF904B
:10270000DF90CF900895DF93CF930F92CDB7DEB7D0
:10271000FC0169838091F2078823C9F08091F10759
:10272000803238F081E090E09383828320E030E0D3
:1027300015C08091F007E82FF0E0E053F84F998141
:1027400090838F5F8093F0078093F10705C0CE01DF
:10275000019661E00E94841421E030E0C9010F90ED
:10276000CF91DF9108950F93062F8091CF0760EDF1
:1027700077E04091F10721E00E942F141092F007BA
:102780001092F1071092F2070F91089561E00E94F4
:10279000B3130895413208F040E2862F6DEA77E0E6
:1027A0000E94E6131092CD078093CE07089521E092
:1027B0000E94CA1308951092CD071092CE0710926E
:1027C000F0071092F1070E9430160895382F413219
:1027D00010F040E042C08091FF078823E1F791E0CC
:1027E0009093FF07209301088FEF80936C0810925D
:1027F00027084150409328084F5F9093000880912C
:102800000008330F832B80930008809102088130E9
:1028100041F410920208809100088093BB0085EC7F
:1028200001C085EE8093BC008091FF078130E1F309
:1028300080912708841710F44091270820E030E0A9
:102840000AC0FB01E20FF31FD901A95FB74F8C91BA
:1028500080832F5F3F4F2417A0F3842F08950F9399
:102860001F93582F122F413210F081E04AC08091FF
:10287000FF078823E1F782E08093FF0700930108B8
:102880008FEF80936C081092270840932808A7E0E8
:10289000B8E0FB0102C081918D938E2F861B8417B7
:1028A000D0F31092000880910008550F852B80937B
:1028B000000880910208813041F410920208809152
:1028C00000088093BB0085EC01C085EE8093BC00BE
:1028D000112321F08091FF078230E1F380916C0891
:1028E0008F3F11F480E00DC080916C08803211F4AC
:1028F00082E007C080916C08803311F084E001C051
:1029000083E01F910F910895482F613210F081E00C
:1029100008958091FF07843011F082E0089560935C
:102920004A08A9E2B8E0842F9C01F90102C0819114
:102930008D938E2F841B8617D0F380E008951F920D
:102940000F920FB60F9211242F933F934F935F93E3
:102950006F937F938F939F93AF93BF93EF93FF9367
:102960008091B90090E0887F90708036910509F4DD
:10297000F2C081369105CCF58832910509F47BC00F
:1029800089329105B4F48031910509F46FC0813129
:1029900091053CF4009709F447C1089709F04FC12D
:1029A00065C08831910509F466C0809709F047C178
:1029B00082C08034910509F4A4C08134910544F4A7
:1029C0008033910509F482C0C89709F038C189C0E5
:1029D0008035910509F489C08835910509F496C0C0
:1029E0008834910509F02BC1AEC08839910509F4EE
:1029F00013C189399105ECF48837910509F4ABC00E
:102A0000893791054CF48836910509F4A4C08037C4
:102A1000910509F014C19FC08838910509F4FCC0E4
:102A20008039910509F49DC08038910509F007C1EE
:102A300098C0803B910509F4C6C0813B91054CF4D8
:102A4000803A910509F49FC0883A910509F0F7C0D2
:102A5000BAC0803C910509F4E3C0883C910509F4B3
:102A6000DFC0883B910509F0EAC0C2C08091000830
:102A70008093BB00CFC090912708809128089817B9
:102A800068F490912708E92FF0E0E95FF74F808123
:102A90008093BB009F5F90932708BCC08091010882
:102AA000882309F44BC085ED8093BC008091BC0065
:102AB00084FDFCCFC2C080E280936C0885ED8093DA
:102AC000BC008091BC0084FDFCCFB7C080E3809344
:102AD0006C0885ED8093BC008091BC0084FDFCCF28
:102AE000ACC088E380936C089BC0809127089091CC
:102AF000BB00E82FF0E0E95FF74F90838F5F809392
:102B00002708909127088091280882C08091270883
:102B10009091BB00E82FF0E0E95FF74F90838F5F63
:102B20008093270880910108882341F085ED8093E8
:102B3000BC008091BC0084FDFCCF7FC081E080930D
:102B4000020884EA6EC085ED8093BC008091BC00D1
:102B500084FDFCCF72C083E08093FF0710926B0866
:102B600059C080916B08803208F056C080916B0884
:102B70009091BB00E82FF0E0E55BF74F90838F5F0B
:102B800080936B0847C080916B08803230F4E091ED
:102B90006B08F0E0E55BF74F108285ED8093BC0099
:102BA0008091BC0084FDFCCF1092FF0760916B0800
:102BB000E0910508F09106088BE498E070E0099533
:102BC00010926B082DC084E08093FF071092490893
:102BD00010924A08E0910308F09104080995809149
:102BE0004A08882329F481E080934A081092290832
:102BF00090914908E92FF0E0E75DF74F80818093DD
:102C0000BB009F5F909349089091490880914A08C2
:102C1000981710F485EC01C085E88093BC000FC0C4
:102C200085EC8093BC0009C010926C0885ED809300
:102C3000BC008091BC0084FDFCCF1092FF07FF9187
:102C4000EF91BF91AF919F918F917F916F915F9124
:102C50004F913F912F910F900FBE0F901F9018959D
:102C60001092FF0781E0809301081092020882E031
:102C700061E00E94822B83E061E00E94822BE9EBFD
:102C8000F0E080818E7F808380818D7F808388E4E7
:102C90008093B80085E48093BC000895FC018BE626
:102CA00090E0918380830895EF92FF920F931F939A
:102CB000FC01F62EE42E03EF17E060817181C8015C
:102CC0000E940113C8016F2D0E948313C8016E2D4D
:102CD0000E948313C8010E94C6131F910F91FF9099
:102CE000EF90089561E040E80E94541681E0089555
:102CF0000E9454160895DF92EF92FF920F931F9354
:102D00007C01D62E03EF17E0FC0160817181C801C0
:102D10000E940113C8016D2D0E948313C8010E94F7
:102D2000C613F70160817181C80141E050E00E9443
:102D3000D713C8010E9414131F910F91FF90EF90B9
:102D4000DF9008951F93CF93DF93EC01162F67E078
:102D50000E947B16482F113011F4426301C04F7D51
:102D6000CE0167E00E94541681E0DF91CF911F9160
:102D7000089564E00E947B16089562E00E947B162D
:102D8000089560E00E947B16089560E00E947B1623
:102D900008950F931F938C0161E00E947B16482FCA
:102DA0004062C80161E00E945416C80161E00E94BF
:102DB0007B161F910F9108950F931F938C0165E06F
:102DC0000E947B16482F4F7CC80165E00E94541674
:102DD00081E01F910F9108950F931F938C0161E083
:102DE0000E947B16482F4064C80161E00E9454167F
:102DF000C80169E00E947B16880F892F881F990BF4
:102E000091951F910F91089568E00E947B16089597
:102E10000E947B160895FC0186E390E091838083F5
:102E20000895EF92FF920F931F93FC01F62EE42E6C
:102E300003EF17E060817181C8010E940113C8018E
:102E40006F2D0E948313C8016E2D0E948313C80149
:102E50000E94C6131F910F91FF90EF900895DF928B
:102E6000EF92FF920F931F93FC01F62ED42EE52EC6
:102E700003EF17E060817181C8010E940113C8014E
:102E80006F2D0E948313C8016E2D0E948313C80109
:102E90006D2D0E948313C8010E94C6131F910F91CC
:102EA000FF90EF90DF9008950F931F938C016EEFCA
:102EB00040E054E50E942F17C8016AE140E00E94FB
:102EC000111781E01F910F910895DF92EF92FF9209
:102ED0000F931F937C01D62E03EF17E0FC01608156
:102EE0007181C8010E940113C8016D2D0E948313D6
:102EF000C8010E94C613F70160817181C80142E0D8
:102F000050E00E94D713C8010E941413F82EC80184
:102F10000E9414133F2D20E0282B392BC9011F914B
:102F20000F91FF90EF90DF90089564E00E94651785
:102F3000892F089562E00E9465170895FC011382AD
:102F4000128284EF94E09183808375836483578336
:102F500046837187608753874287158A1586148652
:102F60001786168621E0248B8FEF9FEF938B828B41
:102F7000918B808B268B08952F923F924F925F9278
:102F80006F927F928F929F92AF92BF92CF92DF9279
:102F9000EF92FF920F931F93DF93CF93CDB7DEB7DE
:102FA00062970FB6F894DEBF0FBECDBF9A8B898BA8
:102FB0003B014A01670151E0A52EB12CA21AB30AC8
:102FC000C901880F991F44275527481B590B58875B
:102FD0004F83C40101979C838B83DB011197BA83D4
:102FE000A98314010894211C311C2B010894411C55
:102FF000511C7901E1E0F0E0FA87E9871E821D8229
:1030000010E0A801447050705C874B87C801827043
:1030100090709E878D87D801A870B070B88BAF87ED
:1030200001701070B7C0B7FC0AC00894E108F1083D
:10303000EF81F8853296F887EF83AE0EBF1E4D8183
:103040005E814F5F5F4F5E834D8389859A850296CF
:103050009A878987AB85BC85AB2BF1F0A989BA89A2
:10306000ED91FC911197A701480D591D0480F58140
:10307000E02DCD01B20196010995A989BA89ED919A
:10308000FC911197B701660D771D0480F581E02D45
:10309000CD01A10196010995ED85FE85EF2BF9F093
:1030A000A989BA89ED91FC911197A4014E195F0984
:1030B0000480F581E02DCD01B20196010995A98921
:1030C000BA89ED91FC911197B701660D771D0480C7
:1030D000F581E02DCD014B815C8196010995EF854D
:1030E000F889EF2BF9F0A989BA89ED91FC91119734
:1030F000B3016E197F090480F581E02DCD01A10196
:1031000096010995A989BA89ED91FC911197A701BA
:10311000480D591D0480F581E02DCD0169817A812A
:10312000960109950115110501F1A989BA89ED9159
:10313000FC911197B3016E197F090480F581E02D90
:10314000CD014B815C8196010995A989BA89ED91E0
:10315000FC911197A4014E195F090480F581E02DBF
:10316000CD0169817A8196010995E985FA85AE0ECE
:10317000BF1E4B815C81415050405C834B838981F1
:103180009A8101979A8389830894211C311C0894A1
:10319000411C511CAD81BE81AE15BF050CF443CF5F
:1031A00062960FB6F894DEBF0FBECDBFCF91DF9110
:1031B0001F910F91FF90EF90DF90CF90BF90AF9055
:1031C0009F908F907F906F905F904F903F902F9047
:1031D00008952F923F924F925F926F927F928F92BB
:1031E0009F92AF92BF92CF92DF92EF92FF920F9396
:1031F0001F93DF93CF93CDB7DEB72E970FB6F8941A
:10320000DEBF0FBECDBF9E878D871B015E834D83C2
:10321000A701260171E0C72ED12CC21AD30AC90119
:10322000880F991F66277727681B790B7A83698334
:103230006D807E8008946108710883E0882E912C4F
:103240008E0C9F1C790181E090E09C838B83AA24E3
:10325000BB2410E0D801A170B070B887AF83FA0129
:103260003196FA87E987B801627070707C876B8746
:1032700077C0D7FC0AC00894E108F10889819A81D7
:1032800002969A838983C80ED91E0894A11CB11C8A
:10329000AB81BC811296BC83AB83EF81F885EF2BA9
:1032A00041F1AD85BE85ED91FC911197B501620D9F
:1032B000731D4D815E814E195F099701220F331FE7
:1032C00089859A85280F391F0084F185E02DCD016D
:1032D00082010995AD85BE85ED91FC911197B701ED
:1032E000620D731D0084F185E02DCD01A3019401D1
:1032F0000995EB85FC85EF2B41F1AD85BE85ED9100
:10330000FC911197B1016A197B094D815E814E19BB
:103310005F099701220F331F89859A85280F391F6E
:103320000084F185E02DCD0182010995AD85BE8532
:10333000ED91FC911197B1016E197F090084F1851F
:10334000E02DCD01A30194010995EB81FC81CE0E06
:10335000DF1E08946108710862E070E0860E971E17
:10336000AE14BF040CF485CF2E960FB6F894DEBFD2
:103370000FBECDBFCF91DF911F910F91FF90EF90C6
:10338000DF90CF90BF90AF909F908F907F906F9085
:103390005F904F903F902F9008952F923F924F92C1
:1033A0005F926F927F928F929F92AF92BF92CF92D5
:1033B000DF92EF92FF920F931F93DF93CF9300D092
:1033C00000D0CDB7DEB73C017C836B836A01590125
:1033D000FA82E982222433249801241B350B37FF1B
:1033E00003C0309521953F4FC5014B815C81841B03
:1033F000950B97FF03C0909581959F4F8217930778
:103400005CF481E0282E312CC601CB80DC809C83CB
:103410008B83C80185015C018B819C81A816B9064C
:1034200044F4C501AB80BC809C838B83C8018601BA
:103430006C012501AB81BC814A1A5B0A7801EC184A
:10344000FD08F7FE04C0F094E194F108F394C0166F
:10345000D10624F088248A94982C03C0B1E08B2EE6
:10346000912CC20162E070E00E9412358B0125C0F0
:10347000D301ED91FC912114310441F00480F581D8
:10348000E02DC301B6014B815C8107C00480F5814A
:10349000E02DC3016B817C81A60129813A810995C8
:1034A0000E191F0917FF04C0C80CD91C040D151DE7
:1034B000EB81FC813196FC83EB834B815C81A4160C
:1034C000B506B4F60F900F900F900F90CF91DF914B
:1034D0001F910F91FF90EF90DF90CF90BF90AF9032
:1034E0009F908F907F906F905F904F903F902F9024
:1034F00008954F925F926F927F928F929F92AF92B8
:10350000BF92CF92DF92EF92FF920F931F936C01C5
:103510005B014A0139012801DC01ED91FC91028433
:10352000F385E02D87010995D601ED91FC91A40169
:1035300041505040440D551D0284F385E02DC601D5
:10354000B50193010995D601ED91FC910084F185B7
:10355000E02DC601B501A40192010995D601ED91B6
:10356000FC910894A108B108A60CB71C0084F18551
:10357000E02DC601B501A401920109951F910F919B
:10358000FF90EF90DF90CF90BF90AF909F908F9083
:103590007F906F905F904F900895CF92DF92EF925F
:1035A000FF920F931F93DC016B017801ED91FC9169
:1035B0008A0101501040020F131F0680F781E02D91
:1035C000960109951F910F91FF90EF90DF90CF909A
:1035D0000895CF92DF92EF92FF920F931F93DC0139
:1035E0006A01C9017801ED91FC9111979B0121506D
:1035F0003040280F391F0680F781E02DCD0186016C
:1036000009951F910F91FF90EF90DF90CF90089553
:103610006F927F928F929F92AF92BF92CF92DF92E2
:10362000EF92FF920F931F93CF93DF935C013A01C8
:1036300069014801EB01C60ED71E0DC0D501ED9101
:10364000FC910084F185E02DC501BE01A301940128
:10365000870109952196CC15DD0584F3DF91CF9183
:103660001F910F91FF90EF90DF90CF90BF90AF90A0
:103670009F908F907F906F900895EF92FF920F939D
:103680001F93FC017B01A081B181208531850285DA
:1036900013851E960D90BC91A02D60E070E040E077
:1036A00050E0FD0109951F910F91FF90EF90089553
:1036B0002F923F924F925F926F927F928F929F9242
:1036C000AF92BF92CF92DF92EF92FF920F931F9330
:1036D000DF93CF93CDB7DEB728970FB6F894DEBF50
:1036E0000FBECDBF5C0178876F831A0149011E832D
:1036F0000D832701CB018E0D9F1D9C838B83EE0CC8
:10370000FF1CF094E194F108F394D701A20FB31FCA
:10371000BA83A983D501ED91FC910284F385E02D54
:10372000C5016B817C8129813A81860109956D8073
:103730007E80620C731C089461087108D501ED91BC
:10374000FC910284F385E02DC5016B817C81A3018E
:1037500029813A810995240C351CED81FE81EE0EFC
:10376000FF1ED501ED91FC910084F185E02DC5018E
:103770006F817885A10197010995EF81F8858E0EFB
:103780009F1E089481089108D501ED91FC91008459
:10379000F185E02DC501B401A10197010995C5018D
:1037A0006B817C81A101920101E076010E94BC172E
:1037B00084189508C501B401A101920102E00E949C
:1037C000BC1764187508C501B401A301920104E097
:1037D0000E94BC17C5016B817C81A301920108E0A6
:1037E0000E94BC1728960FB6F894DEBF0FBECDBF5F
:1037F000CF91DF911F910F91FF90EF90DF90CF90CD
:10380000BF90AF909F908F907F906F905F904F9000
:103810003F902F9008952F923F924F925F926F9218
:103820007F928F929F92AF92BF92CF92DF92EF9250
:10383000FF920F931F93DF93CF9300D000D000D05F
:10384000CDB7DEB72C015B015E834D833C832B83B8
:10385000480137011601C701860F971F9A83898394
:103860006701CC0CDD1CD094C194D108D394D20153
:10387000ED91FC912C0D3D1D0684F785E02DC201D4
:1038800069817A8171010995ED81FE81E60DF71D4F
:10389000FE83ED830894810891088C0C9D1C08948C
:1038A000A108B1088B819C81A80EB91EA618B70883
:1038B000C201B501AF01930101E0740161010E94F1
:1038C000E918C20169817A814D815E81930102E02C
:1038D0000E94E91826960FB6F894DEBF0FBECDBF42
:1038E000CF91DF911F910F91FF90EF90DF90CF90DC
:1038F000BF90AF909F908F907F906F905F904F9010
:103900003F902F9008952F923F924F925F926F9227
:103910007F928F929F92AF92BF92CF92DF92EF925F
:10392000FF920F931F93DF93CF93CDB7DEB7E69748
:103930000FB6F894DEBF0FBECDBF9C878B877E8706
:103940006D871A0139011CAB0BABD88ACF86BA8AB6
:10395000A98A0417150744F43B013E872D878BA9DC
:103960009CA95CAB4BAB1C012BA93CA94F8558898A
:10397000421753075CF4C70173013C018F85988996
:103980006BA97CA9788B6F879CAB8BAB8BA99CA90F
:103990008215930554F4C3016D847E849E878D87C0
:1039A0008BA99CA93CAA2BAA1C01AF85B8892A1611
:1039B0003B0671F5ED85FE856E167F061CF4B3019E
:1039C0009F010BC02D853E85261537051CF4B901D6
:1039D000930103C06D857E859B01E616F70614F4FE
:1039E000B70104C02E153F050CF49701AB85BC85CB
:1039F000ED91FC9111972F5F3F4F261B370B0284EF
:103A0000F385E02DCD01A10109891A8909953BC1F2
:103A10009301ED85FE852E1B3F0B8BA99CA9821976
:103A20009309A7014E1B5F0B58874F836F857889D9
:103A3000621973097E836D83D701A619B709BC8308
:103A4000AB83EF85F8894BA95CA9E41BF50BFA83DE
:103A5000E9836F8578894617570719F45A8749878C
:103A600005C0ABA9BCA91197BA87A98721018824F1
:103A700099245401CC24DD247601AC01662757FD3E
:103A80006095762F4BA35CA36DA37EA36D817E8191
:103A9000882777FD8095982F6FA378A789A79AA785
:103AA000C901AA2797FDA095BA2F8BA79CA7ADA700
:103AB000BEA72F813885442737FD4095542F2FA767
:103AC00038AB49AB5AAB44C0C501B4012BA13CA1F2
:103AD0004DA15EA10E9447350D851E85020F131F63
:103AE000C701B6012FA138A549A55AA50E9447359F
:103AF000AD85BE85A20FB31FA017B1071CF4CD0181
:103B0000D8018C014BA55CA56DA57EA5840E951EE4
:103B1000A61EB71E6FA578A989A99AA9C60ED71E99
:103B2000E81EF91EEB85FC85808191811196A01B12
:103B3000B10BFC010284F385E02D8B859C85B801D7
:103B4000A2019D0109891A8909950894411C511CFB
:103B500029853A85241535050CF0B6CFC2014BA94D
:103B60005CA9841B950BBC01AB81BC816A9FC00121
:103B70006B9F900D7A9F900D11244C01AA2497FC05
:103B8000A094BA2CC20182199309FC012F813885B7
:103B9000E29FC001E39F900DF29F900D11246C01F4
:103BA000EE24D7FCE094FE2C49815A81662757FD0C
:103BB0006095762F4B8B5C8B6D8B7E8B6D817E81C0
:103BC000882777FD8095982F6F8B788F898F9A8FB4
:103BD000CD01AA2797FDA095BA2F8B8F9C8FAD8F13
:103BE000BE8F442737FD4095542F2F8F38A349A30C
:103BF0005AA343C0C501B4012B893C894D895E8914
:103C00000E9447358301020F131FC701B6012F8998
:103C1000388D498D5A8D0E944735AD85BE85A20FDE
:103C2000B31FA017B1071CF4CD01D8018C014B8D37
:103C30005C8D6D8D7E8D840E951EA61EB71E6F8DBC
:103C400078A189A19AA1C60ED71EE81EF91EEB85A0
:103C5000FC85808191811196A01BB10BFC0122840F
:103C600033848B859C85B801A2019D0109891A893D
:103C7000F10109950894411C511C2F8538892415A0
:103C800035050CF0B7CFE6960FB6F894DEBF0FBE41
:103C9000CDBFCF91DF911F910F91FF90EF90DF90FB
:103CA000CF90BF90AF909F908F907F906F905F90DC
:103CB0004F903F902F9008952F923F924F925F9296
:103CC0006F927F928F929F92AF92BF92CF92DF922C
:103CD000EF92FF920F931F93DF93CF93CDB7DEB791
:103CE0002F970FB6F894DEBF0FBECDBF5C015E8389
:103CF0004D8318870F83FA86E986CB86DC011896F8
:103D00008D919C911997681779070CF0A4C01A96A9
:103D10008D919C911B97481759070CF09CC0EC2D76
:103D2000F0E0FF87EE87CF01880F991F8E0F9F1F4E
:103D3000880F991F860F971F181619060CF08BC055
:103D4000CF0103E0880F991F0A95E1F7840F951FB3
:103D5000181619060CF07FC085E0289FA0011124D9
:103D60005A8349832B011B011C825C81553011F45D
:103D700080E005C0E981FA81E455FF4F84912C86EB
:103D80003D866D807E8043011B82C82EDD2480FF2E
:103D90001CC0D501ED91FC91BB85B13049F4048084
:103DA000F581E02DC501B201A3012F81388522C024
:103DB0000684F785E02DC5016C857D85A4012E85DF
:103DC0003F858901EF80F88423C0E985FA852F813A
:103DD0003885E217F307E9F0D501ED91FC91BB8539
:103DE000B13051F40480F581E02DC501B201A30189
:103DF00029853A8509950DC00684F785E02DC50112
:103E00006C857D85A4012E853F858901E984FA842E
:103E10000995EB81EF5FEB832E853F85820E931E24
:103E20000894611C711CE83021F0D594C7948C2D46
:103E3000ACCF3C813F5F3C834E855F85240E351EB1
:103E40000894411C511C89819A8101969A83898327
:103E5000363009F08ACF2F960FB6F894DEBF0FBE2A
:103E6000CDBFCF91DF911F910F91FF90EF90DF9029
:103E7000CF90BF90AF909F908F907F906F905F900A
:103E80004F903F902F900895CF92EF92FF920F9313
:103E90001F93CF93DF93EC01262F6A3061F42C89B6
:103EA00030E013E0220F331F1A95E1F78E859F85CE
:103EB000820F931F37C06D30C9F16C857D854E85AB
:103EC0005F8508891989EA88FB88CC880E945C1E76
:103ED0002C8986E0289FB00111248C859D85680F70
:103EE000791F7D876C878E89882301F1422F50E0EE
:103EF0008AEF9FEF9C01429FC001439F900D529F0C
:103F0000900D112428853985820F931F86179707F6
:103F10006CF4B3E0440F551FBA95E1F78E859F8589
:103F2000840F951F9F878E871D861C8681E090E0F9
:103F3000DF91CF911F910F91FF90EF90CF90089557
:103F4000FC0175876487578746870895FC016623BF
:103F500009F461E0648B0895FC01738B628B718BB3
:103F6000608B0895FC0185890895FC018085918509
:103F70000895FC018285938508950895EF92FF923C
:103F80000F931F93CF93DF93DC01EB017A015596DA
:103F90008C915597823061F08330F1F0813031F5AA
:103FA0001496ED91FC9115973197E41BF50B31C1F7
:103FB00016968D919C9117970197AC014E195F0948
:103FC0007A0114968D919C911597AC01461B570B65
:103FD000EA01C21BD30B0AC016966D917C9117970C
:103FE0006C1B7D0B621B730BFA0113C1F7FEAEC095
:103FF00012C114968D919C911597E817F9070CF052
:104000000AC177FF04C0260F371F60E070E01696E4
:104010004D915C911797C901860F971F4817590753
:104020001CF49A01261B370B121613060CF0F3C072
:10403000962F862F869586958695A82FB0E0B69503
:10404000BA2FAA27B795A795AA53BD4FAE0FBF1F8A
:10405000977071F138E0391B432F50E0FA01E253B9
:10406000FB4FE081231750F4421B51098FEF90E082
:1040700002C0959587954A95E2F7E823013011052E
:1040800039F00130110538F00230110559F407C03C
:104090008C918E2B06C0E0958C918E2302C08C9162
:1040A0008E278C93231708F4B6C0231BA058BF4F4C
:1040B000283060F10230110559F4FD01922F808102
:1040C00080958083E058FF4F98509830C0F70EC01D
:1040D0000130110511F090E001C09FEFFD01822F2A
:1040E0009083E058FF4F88508830D0F7822F885057
:1040F000282F277086958695869590E0019696954F
:10410000982F882797958795A80FB91F222309F420
:1041100082C0E22FF0E0E770F070EA53FB4F20819D
:104120000130110541F00130110540F00230110558
:1041300009F071C008C08C91822B03C020958C912E
:1041400082238C9368C08C918227FBCF16968D9129
:104150009C911797E816F9060CF05DC0D7FF04C0D4
:104160002C0F3D1FC0E0D0E014964D915C91159747
:10417000C9018C0F9D1F481759071CF49A012C1B6D
:104180003D0B121613060CF046C0C70168E070E044
:104190000E941235DB01B695BA2FAA27B795A795CD
:1041A000AA53BD4FAC0FBD1F57E0E522FF2481E0AD
:1041B00090E002C0880F991FEA94E2F7982F01302F
:1041C000110551F00130110570F00230110519F59B
:1041D00019C08C91892B8D93215030408FEF2F3F48
:1041E0003807B9F718C0909503C08C9189238D9337
:1041F000215030404FEF2F3F3407B9F70CC08C915E
:1042000089278D93215030405FEF2F3F3507B9F755
:1042100002C0F7FFEECEDF91CF911F910F91FF907B
:10422000EF9008950F931F93CF93DF93DC01E90183
:1042300055968C915597823071F0833001F1813021
:1042400039F514962D913C911597241B350B2C1B99
:104250003D0BFB012BC114968D919C9115970197F5
:104260009C01261B370BB90116968D919C911797CF
:104270009C01241B350BA9014C1B5D0B09C0169634
:10428000ED91FC9117973197E61BF70B9A010EC140
:1042900077FF61C00DC116968D919C911797E81715
:1042A000F9070CF005C137FF04C0C20FD31F20E08F
:1042B00030E014964D915C911597CE01820F931FBB
:1042C000481759071CF4EA01C21BD30B1C161D0624
:1042D0000CF0EEC0CF0168E070E00E941235DB0107
:1042E000B695BA2FAA27B795A795AA53BD4FA20F87
:1042F000B31FE770F07081E090E002C0880F991F53
:10430000EA95E2F7982F0130110559F001301105B7
:1043100070F00230110509F0CBC017C08C91892BC9
:104320008D9321973FEFCF3FD307C1F7C1C0909541
:1043300003C08C9189238D9321978FEFCF3FD807AE
:10434000C1F7B6C08C9189278D9321972FEFCF3F6E
:10435000D207C1F7ADC014968D919C91159768173F
:1043600079070CF0A5C057FF04C0C40FD51F40E06B
:1043700050E016962D913C911797CE01840F951F12
:10438000281739071CF4E901C41BD50B1C161D06A0
:104390000CF08EC02C2F842F869586958695A82F9D
:1043A000B0E0B695BA2FAA27B795A795AA53BD4FE7
:1043B000A60FB71F477071F138E0341B432F50E050
:1043C000FA01E253FB4FE081C31750F44C1B510933
:1043D0008FEF90E002C0959587954A95E2F7E82324
:1043E0000130110539F00130110538F002301105A6
:1043F00059F407C08C918E2B06C0E0958C918E23CA
:1044000002C08C918E278C93231708F451C0231B74
:10441000A058BF4F283060F10230110559F4FD015A
:10442000922F808180958083E058FF4F985098307C
:10443000C0F70EC00130110511F090E001C09FEFF0
:10444000FD01822F9083E058FF4F88508830D0F7CD
:10445000822F8850282F277086958695869590E024
:1044600001969695982F882797958795A80FB91F3D
:104470002223F1F0E22FF0E0E770F070EA53FB4FF7
:1044800020810130110539F00130110538F002307A
:10449000110571F407C08C91822B06C020958C9178
:1044A000822302C08C9182278C9302C0F7FFF3CE47
:1044B000DF91CF911F910F91089580E092E0E6EC9B
:1044C000F2E0DF019C011D9221503040E1F7089598
:1044D0001F93DC01162F59968C9159978F3F09F441
:1044E00069C09396ED91FC919497808199969C91E7
:1044F0009997892B80839596ED91FC919697908161
:104500009A968C919A978095892380839396ED91C2
:10451000FC919497908199968C9199978095892395
:1045200080835E968C915E97882331F06EBD0DB4CA
:1045300007FEFDCF8EB534C030E840E050E070E0BB
:104540009196ED91FC919297908198968C91989785
:10455000809589238083832F90E0862397235F961D
:10456000ED91FC91909797962C919797892B21F03C
:104570008081822B808304C0808120952823208322
:104580009196ED91FC919297808198969C91989745
:10459000892B808336954F5F5F4F4830510581F6F8
:1045A0009396ED91FC919497808199969C91892B9B
:1045B000808317C057966C91772767FD709583EFBE
:1045C00097E00E94011383EF97E060E00E9483135D
:1045D00083EF97E0612F0E94831383EF97E00E949F
:1045E000C6131F9108956EEA0E94682208956623FB
:1045F00011F067EA01C066EA0E9468220895CF922E
:10460000DF92EF92FF920F931F93CF93DF93EC0112
:1046100061E20E946822CE0160E00E946822CE0121
:104620006FE70E946822CE0162E20E946822CE01FA
:1046300060E00E946822CE0163E00E946822898DBA
:104640008F3F09F454C0EBA1FCA1808199A5892B6F
:104650008083EDA1FEA180819AA5892B8083EBA1A7
:10466000FCA1908189A5809589238083A6ECB2E086
:104670009C918E8D882331F09EBD0DB407FEFDCF39
:104680008EB529C030E840E050E0692F70E0E9A124
:10469000FAA1908188A5809589238083832F90E05B
:1046A00086239723EF8DF8A12FA1892B21F08081FC
:1046B000822B808304C08081209528232083E9A158
:1046C000FAA1808198A5892B808336954F5F5F4F33
:1046D00048305105E1F6119684E0A63CB80741F652
:1046E000EBA1FCA1808199A5892B808334C0009126
:1046F000B8008CE08093B800EE24FF246F89772700
:1047000067FD709583EF97E00E94011383EF97E0B8
:1047100060E40E94831356ECC52E52E0D52ECE0CD9
:10472000DF1C10E083EF97E0F60161916F010E94BA
:1047300083131F5F1031B1F780E190E0E80EF91E9E
:1047400083EF97E00E94C61390E0E91692E0F90625
:10475000A9F60093B800DF91CF911F910F91FF90C0
:10476000EF90DF90CF9008950F931F93CF93DF9337
:10477000EC01162F022F688F4F8B898D8F3F09F424
:1047800079C08B8D61E00E94F52A8D8D61E00E94D9
:10479000F52AED8D2E2F332727FD3095F901E359AA
:1047A000F94FE491F0E0EE0FFF1FEF5AF94F8591BA
:1047B00094919CA38BA32557394FF901849189A724
:1047C000EB8D2E2F332727FD3095F901E359F94F53
:1047D000E491F0E0EE0FFF1FEF5AF94F85919491AD
:1047E0009EA38DA32557394FF90184918AA78E8DF9
:1047F000882309F036C0898D61E00E94F52A8A8DF0
:1048000061E00E94F52AEA8D2E2F332727FD30958F
:10481000F901E359F94FE491F0E0EE0FFF1FEF5A71
:10482000F94F859194919AA389A32557394FF9019E
:10483000849188A7E98D2E2F332727FD3095F90124
:10484000E359F94FE491F0E0EE0FFF1FEF5AF94FF3
:104850008591949198A38F8F2557394FF9018491B1
:104860008FA38E8D882351F00E94EA1284E00E946B
:10487000D91204C083EF97E00E94DB130023E1F01C
:104880008C8D61E00E94F52A8C8D61E00E94822B64
:1048900061E070E080E090E00E94462A8C8D60E04C
:1048A0000E94822B6AE070E080E090E00E94462A3D
:1048B0008C8D61E00E94822BCE016EEA0E946822FC
:1048C000CE0165ED0E946822CE0160E80E94682258
:1048D000CE0168EA0E946822CE016FE10E94682240
:1048E000CE0163ED0E946822CE0160E00E94682242
:1048F000CE0160E40E946822CE016DE80E94682229
:10490000113019F4CE0160E102C0CE0164E10E94D1
:104910006822CE0160E20E946822CE0160E00E941F
:104920006822CE0161EA0E946822CE0168EC0E94F2
:104930006822CE016AED0E946822CE0162E00E94E8
:104940006822CE0161E80E946822CE016FE80E94D1
:104950006822CE0169ED0E946822113019F4CE015F
:1049600062E202C0CE0161EF0E946822CE016BEDCF
:104970000E946822CE0160E40E946822CE0164EAAF
:104980000E946822CE0166EA0E946822CE016FEA88
:104990000E946822DF91CF911F910F910895FF929D
:1049A0000F931F938C01F62E60E870E040E250E018
:1049B0000E949E178CE095E0F801918380838FEF31
:1049C000818F858F838F828FF48E1F910F91FF903F
:1049D0000895CF92DF92EF92FF920F931F93CF93A0
:1049E000DF938C017B01EA01690177FD9EC00E9483
:1049F000B51FE816F9060CF098C0D7FD96C0C8019F
:104A00000E94B91FC817D9070CF08FC081C0F801E8
:104A10008481958101978C1B9D0BE7017C0118C057
:104A2000F8018481958101979C012E193F09790134
:104A3000868197810197FC01EC1BFD0BEF0108C0FB
:104A4000F8018681978101978E199F097E01EC01FB
:104A5000F1E0CF16D10451F021E0C216D10400F1EB
:104A600032E0C316D10409F060C036C0CE0168E060
:104A700070E00E941235FB01F695FE2FEE27F795A8
:104A8000E795EE0DFF1DEA53FD4FC770D07002C0D1
:104A9000CC0CDD1CCA95E2F780818C29808345C04F
:104AA000CE0168E070E00E941235FB01F695FE2F02
:104AB000EE27F795E795EE0DFF1DEA53FD4FC77002
:104AC000D07081E090E002C0880F991FCA95E2F78C
:104AD0008095208128231AC0CE0168E070E00E94F2
:104AE0001235FB01F695FE2FEE27F795E795EE0DB3
:104AF000FF1DEA53FD4FC770D07081E090E002C007
:104B0000880F991FCA95E2F72081282720830DC0BE
:104B1000C8010E94B21F823009F482CF833009F4A9
:104B20008FCF813009F094CF72CFDF91CF911F9159
:104B30000F91FF90EF90DF90CF900895FC01748764
:104B400063870895FC01768765870895FC01748B5F
:104B5000638B0895FC01768B658B0895CF92DF926D
:104B6000EF92FF920F931F93CF93DF93EC01888115
:104B70000E94B52B6C010E94382A7B018C018F8921
:104B8000988D009779F488859985C816D90609F01B
:104B900087C081E090E0988F8F8BE98EFA8E0B8F23
:104BA0001C8F7EC081309105C1F58E819F81C81612
:104BB000D90619F482E090E02DC088859985C81641
:104BC000D90609F06DC08C819D81AA2797FDA0951B
:104BD000BA2F298D3A8D4B8D5C8D820F931FA41FA8
:104BE000B51F8E159F05A007B10708F059C081E0D9
:104BF0008A87EF85F889309709F00995E989FA895C
:104C0000309709F00995ED89FE89309709F00995EB
:104C100086E090E0988F8F8B43C082309105F1F44D
:104C20008A819B81AA2797FDA095BA2F298D3A8D5D
:104C30004B8D5C8D820F931FA41FB51F8E159F0592
:104C4000A007B10718F4EB85FC851DC08885998500
:104C5000C816D90629F583E090E0DCCF83309105B2
:104C600041F48E819F81C816D906D1F4ED85FE8569
:104C70000AC00697A9F48E819F81C816D90649F407
:104C80001A86EB89FC89309709F00995188E1F8ADE
:104C900007C081E08A87ED89FE89309709F0099580
:104CA000DF91CF911F910F91FF90EF90DF90CF9008
:104CB0000895EF92FF920F931F93CF93DF93EC0130
:104CC0008B017A01862F60E00E94F52A0883198300
:104CD00088E592E09B838A8388EE93E09D838C83B2
:104CE000188E1F8A1A86EF2859F081E090E09F8382
:104CF0008E8319861886802F61E00E94822B06C061
:104D00001F821E8281E090E0998788871E861D861B
:104D1000188A1F861A8A198A1C8A1B8A1E8A1D8A6B
:104D2000DF91CF911F910F91FF90EF900895FC01BB
:104D300080916D0890916E088E179F0711F480E0A6
:104D40000895838D8E7F838F9FB7F8941092AF085C
:104D50008091AF088093B008F0936E08E0936D08DF
:104D60009FBF81E008950F931F93CF93DF93FC01C2
:104D7000738D76957170A685B7859585772329F013
:104D80008C91892309F454C004C08C91892309F0C3
:104D90004FC08389948920E001972FEF8F3F9207BE
:104DA000D9F7C589D689A685B785158560E031E034
:104DB00040E050E000E0CE01202F01972FEF8F3F21
:104DC0009207D9F78C91812311F0632B03C0832FB5
:104DD00080956823330F4F5F5F4F4830510559F777
:104DE0008789908D20E001972FEF8F3F9207D9F7A9
:104DF000711160958091AF082091B00890E0019604
:104E00008F73907030E08217930779F0E091AF08CC
:104E1000F0E0E159F74F60838091AF0890E0019690
:104E20008F7390708093AF0803C0838D8160838FF0
:104E3000DF91CF911F910F9108951F920F920FB69E
:104E40000F9211242F933F934F935F936F937F9310
:104E50008F939F93AF93BF93EF93FF9380916D08D0
:104E600090916E08009711F00E94B326FF91EF9188
:104E7000BF91AF919F918F917F916F915F914F9172
:104E80003F912F910F900FBE0F901F901895CF92CA
:104E9000DF92EF92FF920F931F93CF93DF93EC017A
:104EA0007A018B011A8E198E188E1F8A1E8A1D8A0E
:104EB0001C8A1B8A20E030E06901CC0CDD1CC20E8C
:104EC000D31EB601660F771F660F771FAB014955DA
:104ED0005A4FFA0185919591A591B4918E159F0530
:104EE000A007B107E9F4FB01E555FA4F85919491CC
:104EF0009C8B8B8BFB01E355FA4F859194919E8B94
:104F00008D8BFB01E155FA4F85919491988F8F8B92
:104F1000FB01EF54FA4F859194919A8F898F06C0C7
:104F20002F5F3F4F2D30310509F0C6CF8F89988D07
:104F3000892B09F457C09C85892F8850843038F01C
:104F40008650843020F09A51933008F043C080910D
:104F500068008160809368002C85922F985094306F
:104F600090F0822F8E50843070F08C50833008F493
:104F700051C0A0E0B0E0833018F0E0E0F0E007C0FE
:104F8000EBE6F0E004C0EBE6F0E0ABE6B0E0408139
:104F9000943020F430E02450304013C02E3011F40F
:104FA00088E016C02F3011F482E012C0203111F4D5
:104FB00084E00EC0213111F481E00AC030E02651B6
:104FC000304081E090E002C0880F991F2A95E2F7F7
:104FD000842B8C93898D9A8D20E001972FEF8F3F42
:104FE0009207D9F780916D0890916E088C179D07F4
:104FF000A1F08B8D8E7F8B8F9FB7F8941092AF08A6
:105000008091AF088093B008D0936E08C0936D086C
:105010009FBF03C0ABE6B0E0AECFDF91CF911F9151
:105020000F91FF90EF90DF90CF900895FC012485C1
:10503000922F9850943038F0822F8E50843018F090
:105040008C50833030F540916B00943020F430E088
:105050002450304013C02E3011F487EF17C02F308A
:1050600011F48DEF13C0203111F48BEF0FC02131FB
:1050700011F48EEF0BC030E02651304081E090E01B
:1050800002C0880F991F2A95E2F7809584238093A8
:105090006B000895FC0184E295E091838083CF0149
:1050A0000E941628089520916D0830916E082817E7
:1050B000390731F49091B0088091AF08981719F42E
:1050C0002FEF3FEF0FC0E091B008F0E0E159F74F4C
:1050D00020818091B00890E001968F73907080934A
:1050E000B00830E0C901089520916D0830916E0834
:1050F0002817390719F020E030E00EC08091AF0882
:105100002091B00890E0805C9F4F821B910960E481
:1051100070E00E9412359C01C90108950F931F93FE
:10512000DC0159968D919C915A97892B49F481E025
:1051300090E013969C938E93129720E030E097C0F6
:105140000FB7F8945B968C915B975196ED91FC911B
:10515000529750962C91509781FF8DC08081822B61
:10516000808359968D919C915A97059620E00197DE
:105170002FEF8F3F9207D9F75B968C915B9781FF5A
:1051800035C031E040E050E070E010E0832F90E067
:10519000862397235196ED91FC91529750962C912E
:1051A0005097892B29F0808120952823208303C0E4
:1051B0008081822B808359968D919C915A97212FC3
:1051C00001972FEF8F3F9207D9F7330F4F5F5F4F54
:1051D00048305105D9F65196ED91FC915297908146
:1051E00050968C9150978095892333C031E040E0F0
:1051F00050E070E010E0832F90E0862397235196D3
:10520000ED91FC91529750962C915097892B21F05B
:105210008081822B808304C0808120952823208375
:1052200059968D919C915A97212F01972FEF8F3F7F
:105230009207D9F7330F4F5F5F4F48305105D9F6CA
:105240005196ED91FC915297808150969C91509788
:10525000892B80830FBF59968D919C915A9720E09E
:1052600001972FEF8F3F9207D9F721E030E0C90176
:105270001F910F910895808120952823208371CF5D
:1052800020916D0830916E082817390749F49FB7AF
:10529000F8941092AF088091AF088093B0089FBF38
:1052A000089520916D0830916E082817390731F460
:1052B0009091B0088091AF08981719F42FEF3FEF45
:1052C0000AC0E091B008F0E0E159F74F8081282F43
:1052D000332727FD3095C90108951F93CF93DF939E
:1052E000EC01162F862F60E00E94F52A8B8D81FD40
:1052F00004C0812F61E00E94822B1C87212F30E0A7
:10530000C9018557994FFC0184918D872359394FE5
:10531000F9016491E62FF0E0EE0FFF1FE15AF94F1B
:10532000859194919F878E87DF91CF911F910895EA
:105330001F93CF93DF93EC01162F862F61E00E941D
:10534000F52A60E08B8D81FF61E0812F0E94822B26
:10535000212F30E0C9018557994FFC018491888B3A
:105360002359394FF9016491E62FF0E0EE0FFF1F4A
:10537000EF5AF94F859194919A8B898BDF91CF9158
:105380001F910895FF920F931F938C01F62EFC013D
:105390001382128288EE93E0A0E0B0E084839583CC
:1053A000A683B78384E295E091838083148A138A6D
:1053B000168A158A108E178A128E118E838D21708F
:1053C000220F8C7F822B838FC801642F0E94982923
:1053D000C8016F2D0E946D291F910F91FF900895B4
:1053E0001F920F920FB60F9211242F933F938F931A
:1053F0009F93AF93BF938091B5089091B608A09109
:10540000B708B091B8083091B9080196A11DB11D37
:10541000232F2D5F2D3720F02D570196A11DB11D93
:105420002093B9088093B5089093B608A093B70865
:10543000B093B8088091B1089091B208A091B308D8
:10544000B091B4080196A11DB11D8093B10890934D
:10545000B208A093B308B093B408BF91AF919F91E5
:105460008F913F912F910F900FBE0F901F90189525
:105470008FB7F8942091B5083091B6084091B708DD
:105480005091B8088FBFB901CA0108959B01AC01C2
:105490007FB7F8948091B1089091B208A091B308B9
:1054A000B091B40866B5A89B05C06F3F19F001968E
:1054B000A11DB11D7FBFBA2FA92F982F8827860F56
:1054C000911DA11DB11D62E0880F991FAA1FBB1F6E
:1054D0006A95D1F7BC012DC0FFB7F8948091B1084F
:1054E0009091B208A091B308B091B408E6B5A89B1A
:1054F00005C0EF3F19F00196A11DB11DFFBFBA2FE6
:10550000A92F982F88278E0F911DA11DB11DE2E0B4
:10551000880F991FAA1FBB1FEA95D1F7861B970B0F
:10552000885E9340C8F2215030404040504068515E
:105530007C4F211531054105510571F60895789488
:1055400084B5826084BD84B5816084BD85B5826088
:1055500085BD85B5816085BDEEE6F0E08081816026
:105560008083E1E8F0E01082808182608083808126
:1055700081608083E0E8F0E0808181608083E1E900
:10558000F0E0808182608083808181608083E0E9B7
:10559000F0E0808181608083E1ECF0E080818460D4
:1055A0008083808182608083808181608083E3EC5E
:1055B000F0E0808181608083E0ECF0E080818260B7
:1055C0008083E2ECF0E0808181608083EAE7F0E0B4
:1055D000808184608083808182608083808181601B
:1055E00080838081806880830895CF93DF93482FE4
:1055F00050E0CA018557994FFC0134914359594FE6
:10560000FA018491882369F190E0880F991FFC01C9
:10561000ED5BF94FA591B491FC01EF5AF94FC5919B
:10562000D491662351F42FB7F8948C91932F9095D1
:1056300089238C93888189230BC0623061F42FB752
:10564000F8948C91932F909589238C938881832B48
:1056500088832FBF06C09FB7F8948C91832B8C93BF
:105660009FBFDF91CF910895883071F1893068F440
:10567000823031F1833020F4813009F042C01DC006
:10568000833089F08430E9F512C08B3059F18C30C9
:1056900028F48930E9F08A30A1F51EC08C3031F150
:1056A0008E3079F529C0809180008F7703C080917A
:1056B00080008F7D80938000089584B58F7702C02D
:1056C00084B58F7D84BD0895809190008F7707C049
:1056D000809190008F7D03C080919000877F8093A0
:1056E000900008958091C0008F7703C08091C00022
:1056F0008F7D8093C00008958091C200877F809342
:10570000C2000895FF920F931F93F62E482F50E08A
:10571000CA018755994FFC012491CA018557994FB9
:10572000FC0114914359594FFA0104910023C9F027
:10573000222319F0822F0E94342BE02FF0E0EE0F8D
:10574000FF1FEF5AF94FA591B4919FB7F894FF202E
:1057500021F48C911095812302C08C91812B8C9324
:105760009FBF1F910F91FF9008950F931F93482F94
:1057700050E0CA018755994FFC012491CA01855711
:10578000994FFC0104914359594FFA011491112387
:1057900019F420E030E015C0222319F0822F0E9476
:1057A000342B812F90E0880F991F815A994FFC016B
:1057B000A591B4918C9120E030E0802311F021E09C
:1057C00030E0C9011F910F9108950895CF93DF93A1
:1057D0000E949F2A0E94E52B82EC98E00E94472EAF
:1057E0000E946510C0E0D0E00E94C8122097E1F34B
:1057F0000E940000F9CF0895CF92DF92EF92FF92BE
:105800000F931F93CF93DF937C016B018A01C0E05C
:10581000D0E00FC0D6016D916D01D701ED91FC91E3
:105820000190F081E02DC7010995C80FD91F0150E3
:1058300010400115110571F7CE01DF91CF911F9135
:105840000F91FF90EF90DF90CF900895EF92FF922D
:105850000F931F938C01DC01ED91FC910190F0817D
:10586000E02D6DE009957C01D801ED91FC9101904E
:10587000F081E02DC8016AE009959C012E0D3F1DC5
:10588000C9011F910F91FF90EF900895CF93DF937F
:10589000EC016115710519F420E030E00FC0DB0167
:1058A0000D900020E9F71197A61BB70BE881F9814D
:1058B0000280F381E02DAD0109959C01C901DF91C2
:1058C000CF9108954F925F927F928F929F92AF9265
:1058D000BF92CF92DF92EF92FF920F931F93DF93CD
:1058E000CF93CDB7DEB7A1970FB6F894DEBF0FBE4A
:1058F000CDBF2C01742ECB01223008F42AE019A26E
:1059000031E2C32ED12CCC0EDD1E822E9924AA2486
:10591000BB24672D752FA50194010E9425357901BF
:105920008A01C801B701A50194010E94F334472DF3
:10593000461B0894C108D1084A3014F4405D01C0E8
:10594000495CF6014083E114F1040105110521F0E1
:105950007E2C5F2DC801DDCFC201B6010E94462C0E
:10596000A1960FB6F894DEBF0FBECDBFCF91DF91E9
:105970001F910F91FF90EF90DF90CF90BF90AF906D
:105980009F908F907F905F904F900895DC0121153C
:10599000310541F4ED91FC910190F081E02D642FEF
:1059A000099508950E94622C0895CF92DF92EF929C
:1059B000FF920F931F93CF93DF93EC016A017B015A
:1059C0002115310541F4E881F9810190F081E02D44
:1059D000642F09951FC02A303105D1F477FF17C015
:1059E000E881F9810190F081E02D6DE209958C014B
:1059F00044275527BA014C195D096E097F09CE016C
:105A00002AE00E94622C9801280F391F04C02AE066
:105A10000E94622C9C01C901DF91CF911F910F91CF
:105A2000FF90EF90DF90CF900895EF92FF920F9349
:105A30001F937B019A010027F7FC0095102FB801F6
:105A4000A7010E94D52C1F910F91FF90EF90089510
:105A50000E94462C0895EF92FF920F931F937C01B2
:105A60000E94462C8C01C7010E94262C080F191F8A
:105A7000C8011F910F91FF90EF9008959FB7F89480
:105A800087708093E9008091F2009FBF0895282FCE
:105A90008091BC088823C1F057FF1AC015C0289810
:105AA0009093BB088091F1008193E217F307B9F757
:105AB0004115510539F08091F200882319F48BE6E5
:105AC0008093E800AFBF02C04FEF5FEFCA010895B7
:105AD000AFB7F89427702093E9008091F200282F47
