:100000000C9443040C946B040C946B040C946B04DC
:100010000C946B040C946B040C946B040C946B04A4
:100020000C946B040C9417270C94F42D0C94212F32
:100030000C946B040C946B040C946B040C946B0484
:100040000C946B040C946B040C946B040C946B0474
:100050000C946B040C946B040C946B040C94EA29C0
:100060000C946B040C946B040C946B040C946B0454
:100070000C946B040C946B040C946B040C946B0444
:100080000C946B040C946B040C946B040C946B0434
:100090000C9499140C946B040C946B040C946B04E6
:1000A0000C946B040C946B040C946B040000000023
:1000B000003E5B4F5B3E3E6B4F6B3E1C3E7C3E1CEE
:1000C000183C7E3C181C577D571C1C5E7F5E1C0034
:1000D000183C1800FFE7C3E7FF0018241800FFE7EB
:1000E000DBE7FF30483A060E2629792926407F05AE
:1000F0000507407F05253F5A3CE73C5A7F3E1C1CC4
:1001000008081C1C3E7F14227F22145F5F005F5F83
:1001100006097F017F006689956A6060606060946F
:10012000A2FFA29408047E040810207E2010080874
:100130002A1C08081C2A08081E101010100C1E0C7F
:100140001E0C30383E3830060E3E0E060000000011
:100150000000005F00000007000700147F147F14F8
:10016000242A7F2A1223130864623649562050003D
:1001700008070300001C2241000041221C002A1C29
:100180007F1C2A08083E0808008070300008080814
:100190000808000060600020100804023E51494534
:1001A0003E00427F400072494949462141494D3352
:1001B0001814127F1027454545393C4A49493141B9
:1001C000211109073649494936464949291E000087
:1001D00014000000403400000008142241141414DC
:1001E0001414004122140802015909063E415D59C8
:1001F0004E7C1211127C7F494949363E41414122D1
:100200007F4141413E7F494949417F090909013EFA
:10021000414151737F0808087F00417F4100204021
:10022000413F017F081422417F404040407F021C33
:10023000027F7F0408107F3E4141413E7F0909094A
:10024000063E4151215E7F09192946264949493216
:1002500003017F01033F4040403F1F2040201F3FDC
:100260004038403F63140814630304780403615961
:10027000494D43007F4141410204081020004141A3
:10028000417F04020102044040404040000307084F
:100290000020545478407F2844443838444444284B
:1002A000384444287F385454541800087E090218F2
:1002B000A4A49C787F0804047800447D400020407A
:1002C000403D007F1028440000417F40007C0478BE
:1002D00004787C080404783844444438FC18242406
:1002E0001818242418FC7C08040408485454542486
:1002F00004043F44243C4040207C1C2040201C3C03
:100300004030403C44281028444C9090907C4464F9
:10031000544C44000836410000007700000041368C
:10032000080002010204023C2623263C1EA1A16112
:10033000123A4040207A3854545559215555794144
:100340002254547842215554784020545579400C19
:100350001E527212395555555939545454593955FC
:100360005454580000457C410002457D420001453F
:100370007C407D1211127DF0282528F07C545545D3
:10038000002054547C547C0A097F4932494949323F
:100390003A4444443A324A4848303A4141217A3A50
:1003A00042402078009DA0A07D3D4242423D3D401C
:1003B00040403D3C24FF2424487E4943662B2FFCCB
:1003C0002F2BFF0929F620C0887E09032054547979
:1003D000410000447D413048484A32384040227A4A
:1003E000007A0A0A727D0D19317D2629292F2826C7
:1003F0002929292630484D402038080808080808CF
:100400000808382F10C8ACBA2F102834FA00007B27
:10041000000008142A142222142A1408AA005500E5
:10042000AAAA55AA55AA000000FF00101010FF004C
:10043000141414FF001010FF00FF1010F010F0143F
:100440001414FC001414F700FF0000FF00FF141444
:10045000F404FC141417101F10101F101F14141490
:100460001F00101010F0000000001F101010101FCF
:1004700010101010F010000000FF101010101010DD
:10048000101010FF10000000FF140000FF00FF001C
:10049000001F10170000FC04F41414171017141494
:1004A000F404F40000FF00F714141414141414F7E7
:1004B00000F7141414171410101F101F141414F440
:1004C000141010F010F000001F101F0000001F1487
:1004D000000000FC140000F010F01010FF10FF14DA
:1004E0001414FF141010101F00000000F010FFFF84
:1004F000FFFFFFF0F0F0F0F0FFFFFF000000000052
:10050000FFFF0F0F0F0F0F3844443844FC4A4A4A8C
:10051000347E02020606027E027E02635549416372
:100520003844443C04407E201E2006027E0202998C
:10053000A5E7A5991C2A492A1C4C7201724C304A25
:100540004D4D303048784830BC625A463D3E4949AE
:1005500049007E0101017E2A2A2A2A2A44445F4456
:100560004440514A444040444A51400000FF010386
:10057000E080FF000008086B6B0836123624360650
:100580000F090F060000181800000010100030407E
:10059000FF0101001F01011E00191D1712003C3C44
:1005A0003C3C000000000000C201000100110011ED
:1005B000000C0000E100000A0025002500210000D9
:1005C0009600001900390039003600127A00001F29
:1005D000004600460044008070000022004D004D9F
:1005E000004A00004B0000360075007500720040A4
:1005F0003800004A009C009C009900802500007291
:1006000000EC00EC00E900C0120000E900DA01DAB9
:1006100001D70160090000D701B603B603B303B0E8
:10062000040000B3036E076E076B07580200006EEC
:1006300007DC0EDC0ED80E2C010000DC0EC11DC143
:100640001DBE1D00000000240027002A002D0030E0
:100650000000000000250028002B002E00310000C3
:100660000000002300260029002C002F00040404B1
:100670000404030405020202020403020202020649
:10068000060606060604040202020404080201101B
:1006900040804010204080408008020401804020BB
:1006A0001002011080102040400000000200080EDF
:1006B0000000030401000B00000000000000000027
:1006C00000000000000000070605040100080A0BF6
:1006D0000C0D090403090422034100720064007533
:1006E0000069006E006F0020004C0065006F006E16
:1006F000006100720064006F001803410072006422
:1007000000750069006E006F0020004C004C004333
:100710000012010002000000404123368000010168
:100720000200011201000202000040412336800055
:10073000010102000100C18081C1080B0002020218
:10074000010009040000010202000005240010015C
:100750000524010101042402060524060001070501
:10076000810310004009040100020A00000007058F
:100770000202400000070583024000000501090253
:10078000A1010901A100850105091901290315002D
:100790002501950375018102950175058103050108
:1007A0000930093109381581257F750895038106BF
:1007B000C0C005010906A1018502050719E029E766
:1007C00015002501750195088102950175088103C1
:1007D000950675081500256505071900296581002E
:1007E000C009040200010300000009210101000109
:1007F000226500070584034000010000000000009E
:1008000000002A2B2800000000000000000000006B
:10081000000000000000000000002C9EB4A0A1A277
:10082000A434A6A7A5AE362D3738271E1F202122B7
:1008300023242526B333B62EB7B89F8485868788B0
:10084000898A8B8C8D8E8F909192939495969798A0
:10085000999A9B9C9D2F3130A3AD3504050607085E
:10086000090A0B0C0D0E0F10111213141516171880
:10087000191A1B1C1DAFB1B0B500FE053513402E73
:10088000C230CD31F70511241FBECFEFDAE0DEBF55
:10089000CDBF15E0A0E0B1E0E4E7FBE602C00590C3
:1008A0000D92A234B107D9F718E0A2E4B5E001C077
:1008B0001D92A23DB107E1F718E0C4E8D8E004C0FA
:1008C0002297FE010E947235CA37D107C9F70E94EC
:1008D000E02B0C94AD350C940000A0E0B0E0E3E711
:1008E000F4E00C947E35EC01A880B980CA80DB80EE
:1008F000A114B104C104D10441F484E2A82E89ED0D
:10090000B82E8BE5C82E87E0D82EC601B5012DE1A3
:1009100033EF41E050E00E94413527EA31E440E006
:1009200050E00E94ED347B018C01C601B5012DE140
:1009300033EF41E050E00E944135CA01B9012CEE8D
:1009400034EF4FEF5FEF0E94ED346E0D7F1D801F7F
:10095000911F97FF04C061507040804090486883A9
:1009600079838A839B839B01AC015F77B901CA01BC
:10097000CDB7DEB7EAE00C949A350E946D04089575
:1009800081EA92E00E946D0408956093A102709341
:10099000A2028093A3029093A4020895FC018827E9
:1009A0009927E89421912032E9F3293010F02E3074
:1009B000C8F32B3241F02D3239F4689404C00E9400
:1009C0006B05820F911D219120532A30C0F31EF434
:1009D000909581959F4F0895FB01DC010D900020BB
:1009E000E9F7119701900D920020E1F70895FB01BE
:1009F000DC018D91019080190110D9F3990B0895B4
:100A0000FB01DC0101900D920020E1F70895FB014C
:100A1000DC014150504048F001900D920020C9F790
:100A200001C01D9241505040E0F70895FB019F0125
:100A3000E8944230C4F04532B4F44A3029F497FBCC
:100A40001EF4909581959F4F642F77270E945C3507
:100A5000805D8A330CF0895D8193CB010097A1F70B
:100A600016F45DE251931082C9010C947305FA01EA
:100A7000CF93FF93EF93223044F1253234F5C22F08
:100A8000E894CA3049F497FB3EF4909580957095B0
:100A900061957F4F8F4F9F4F2C2F3327442755272A
:100AA000FF93EF930E941F35EF91FF91605D6A33D2
:100AB0000CF0695D6193B901CA01605070408040DB
:100AC000904051F716F4CDE2C19310828F919F911F
:100AD000CF910C9473057AE0979F902D879F802D7E
:100AE000910D11240895DC01FC01672F719177238A
:100AF000E1F7329704C07C916D9370836291AE17D9
:100B0000BF07C8F308958091440590914505209151
:100B10003B0730913C07892BC9F42130310561F145
:100B20002230310541F02115310541F410923A0788
:100B300010923907089584E090E020C023303105F9
:100B400041F510923C0710923B0708952130310582
:100B500081F0223031051CF4232B41F0089522301E
:100B6000310551F023303105A1F40DC081E090E052
:100B700005C082E090E002C083E090E090933A07E5
:100B800080933907089584E090E090933A0780932A
:100B9000390708958130910501F56F5F7F4F31F579
:100BA0008CEF96E06AE04DE020E00E94BC298CE1E9
:100BB00097E00E94051780E297E00E94481689E5B9
:100BC00097E06CE00E94C92484E897E068E070E058
:100BD00041E050E00E9453260895892B39F46F5F5D
:100BE0007F4F21F48CEF96E00E944428089580E026
:100BF00090E06FEF7FEF0E94CA05089581E090E0DA
:100C00006FEF7FEF0E94CA0508959093430580938C
:100C100042057093B8026093B7020E94322A609333
:100C20003D0770933E0780933F07909340070895D8
:100C30000E94322A609345077093460780934707C6
:100C40009093480708958091220790912307892B5C
:100C500051F40E94322A6093490770934A078093A7
:100C60004B0790934C07089589E597E062E04CE3C9
:100C700021E00E94AE2381E090E09093580780939A
:100C8000570790934305809342050E9423060895D9
:100C90000E94230689E090E065E070E00E9405066E
:100CA00008950E9423068091420590914305029782
:100CB00061F40E94322A7093B8026093B70283E015
:100CC00090E065E070E00E94050608950E94322AD7
:100CD00060933D0770933E0780933F0790934007D2
:100CE00008950E9423068091570790915807019715
:100CF00009F068C0809142059091430585309105C7
:100D000009F459C08630910558F482309105A1F05C
:100D10008330910509F44FC0019709F05DC04BC0C5
:100D20008730910509F447C08730910508F443C026
:100D3000089709F051C03FC00E94322A60933D07D6
:100D400070933E0780933F0790934007809155072B
:100D500090915607892B19F483E090E002C084E05B
:100D600090E09093B6028093B50280912207909113
:100D70002307892B49F08091B5029091B602019723
:100D80009093B6028093B50280913B0790913C0707
:100D9000019690933C0780933B072091B5023091D8
:100DA000B6028217930724F010923C0710923B077B
:100DB0000E948305089582E090E065E070E00E9463
:100DC000050608950E9423060E94340681E090E003
:100DD00065E070E00E94050608950F931F930E943E
:100DE000322A7093B8026093B70209E517E0C80190
:100DF00060E070E040E050E00E949A1FC80168EE99
:100E000075E00E94222D1F910F9108950F931F935B
:100E100009E517E0C80168E170E04CE050E00E948D
:100E20009A1FC80160E071E00E94222D1F910F916E
:100E3000089589E597E060E070E040E050E00E94AE
:100E40009A1F89E597E06FE071E00E94222D809162
:100E50002E0790912F070197029728F489E597E0D4
:100E60006FE171E004C089E597E063E271E00E9400
:100E7000222D89E597E068E271E00E94222D89E544
:100E800097E060E070E048E050E00E949A1F89E53A
:100E900097E06AE271E00E94222D6091A7027091B2
:100EA000A80289E597E04AE050E00E940F2D89E50D
:100EB00097E068E371E00E94222D89E597E060E009
:100EC00070E040E150E00E949A1F89E597E06BE3F3
:100ED00071E00E94222D8091220790912307909328
:100EE000250780932407892B89F08091A702909190
:100EF000A8028436910529F489E597E068E471E059
:100F000009C089E597E06DE471E004C089E597E0E8
:100F100066E571E00E94222D89E597E068E271E0C4
:100F20000E94222D89E597E060E070E048E150E002
:100F30000E949A1F89E597E06AE571E00E94222DE0
:100F400020E08091220790912307892B09F421E06A
:100F500020933807222329F089E597E069E671E0BC
:100F600004C089E597E066E571E00E94222D89E5DD
:100F700097E068E271E00E94222D0895CF92DF92FF
:100F8000EF92FF920F931F9309E517E0C80160E00D
:100F900070E040E050E00E949A1FC8016CE671E0EA
:100FA0000E94252DC8016EE671E00E94252DC80122
:100FB00060E771E00E94252DC80162E771E00E94A0
:100FC000222DC80162E170E042E050E00E949A1FC9
:100FD000C80164E771E00E94222D92E9E92E96E0B3
:100FE000F92EC801B7010E94222D8BE7C82E81E09F
:100FF000D82EC801B6010E94222DC80162E170E01E
:101000004CE050E00E949A1FC8016EE771E00E9418
:10101000222D80E190E0E80EF91EC801B7010E9480
:10102000222DC801B6010E94222DC80162E170E0A4
:1010300046E150E00E949A1FC80165E871E00E94F5
:10104000222D80E190E0E80EF91EC801B7010E9450
:10105000222DC801B6010E94222DC8016AE070E06D
:1010600040E050E020E230E001E010E00E940C217E
:101070001F910F91FF90EF90DF90CF9008952F92E6
:101080003F924F925F926F927F928F929F92AF9218
:10109000BF92CF92DF92EF92FF920F931F93DF9355
:1010A000CF9300D000D0CDB7DEB79A838983F62ED8
:1010B000E42E122F602F89E597E00E94A01F89E59A
:1010C00097E060E070E00E94A61F612E7724CC2498
:1010D000DD24C618D7084F2C55244601840C951CD6
:1010E0005601FF2416012E0C3F1C1FC089E597E016
:1010F000B401A8010E949A1F89E597E069817A816D
:101100000E94222D8B819C8101969C838B830F5F93
:101110001F4F6816790654F70894A11CB11C089457
:10112000811C911C6A147B0424F08101DC82CB8237
:10113000DDCF89E597E0B201A7010E949A1F89E5FA
:1011400097E061E070E00E94A61F89E597E0698161
:101150007A810E94222D0F900F900F900F90CF91C7
:10116000DF911F910F91FF90EF90DF90CF90BF9094
:10117000AF909F908F907F906F905F904F903F9037
:101180002F900895CF92DF92EF92FF920F931F93CB
:10119000CF93DF93C7E0D0E089E597E0BE0146E05A
:1011A00050E02AE030E004E110E0B2E0EB2EF12C58
:1011B000A1E0CA2ED12C0E94051C2C96CF37D10558
:1011C00059F72091A7023091A80280E790E0A90189
:1011D000489F9001499F300D589F300D1124C9013F
:1011E00064E670E00E940C35FB013796C9016CE99A
:1011F0007FEF0E940C359B0127583F4F89E597E010
:10120000BF0140E050E000E210E0EE24FF240E9425
:10121000021B89E597E062E070E042E050E028E7D9
:1012200030E00CE110E0F3E0EF2EF12C0E94521BB5
:1012300089E597E063E070E043E050E026E730E0C6
:101240000AE110E00E94521B89E597E068E770E030
:101250004AE050E027E030E00AE010E0E2E0EE2E65
:10126000F12C0E94051C8CE891E06AE04CE022E041
:1012700001E00E943F088EE891E06EE64CE022E03B
:101280000E943F08DF91CF911F910F91FF90EF9047
:10129000DF90CF900895FF920F931F93CF93DF932A
:1012A000EC01F22E89E597E00E949A1F89E597E00C
:1012B0006F2D0E94A01F0130110531F489E597E0E0
:1012C000BE010E94252D05C089E597E0BE010E9460
:1012D000222DDF91CF911F910F91FF900895EF92F2
:1012E000FF920F931F9319E5E12E17E0F12EC7012E
:1012F00060E070E044E050E00E949A1FC70160E99E
:1013000071E00E94252DC70162E971E00E94252D40
:10131000C70164E971E00E94222D86E991E06FE047
:1013200070E040E050E021E030E000E010E00E949A
:101330004B098CE991E06FE070E040E150E021E082
:1013400030E00E944B09C7016FE070E048E050E0D8
:101350000E949A1F02EC16E0C701B8010E94222DDC
:10136000C7016FE070E048E150E00E949A1F005F03
:101370001F4FC701B8010E94222DC7016AE070E02B
:1013800040E050E020E230E001E010E00E940C215B
:101390001F910F91FF90EF900895AF92BF92CF925F
:1013A000DF92EF92FF920F931F9383EA91E060E048
:1013B00070E042E050E021E030E000E010E00E9408
:1013C0004B0929E5E22E27E0F22E92E6C92E96E09F
:1013D000D92EC701B6010E94222D8DEAA82E81E0E8
:1013E000B82EC701B5010E94222D80EB91E060E08C
:1013F00070E04CE050E021E030E00E944B0980E1D9
:1014000090E0C80ED91EC701B6010E94222DC70167
:10141000B5010E94222D8AEB91E060E070E046E188
:1014200050E021E030E00E944B0980E190E0C80EDE
:10143000D91EC701B6010E94222DC701B5010E9425
:10144000222DC7016AE070E040E050E020E230E089
:1014500001E010E00E940C211F910F91FF90EF908E
:10146000DF90CF90BF90AF900895CF92DF92EF9230
:10147000FF920F931F9349E5E42E47E0F42EC70136
:1014800060E070E044E050E00E949A1FC70164EC05
:1014900071E00E94252DC70166EC71E00E94252DA8
:1014A000C70168EC71E00E94222D8AEC91E068E1AE
:1014B00070E043E050E021E030E000E010E00E9406
:1014C0004B0932E4C32E36E0D32EC701B6010E9489
:1014D000222DC7016FEC71E00E94222D82ED91E078
:1014E00062E170E043E150E021E030E00E944B090E
:1014F00080E190E0C80ED91EC701B6010E94222DDE
:10150000C70168ED71E00E94222DC7016AE070E01A
:1015100040E050E020E230E001E010E00E940C21C9
:101520001F910F91FF90EF90DF90CF90089589E584
:1015300097E00E94ED2210925207109251071092EC
:10154000580710925707089580912207909123071A
:10155000892BD9F40E94322A2091490730914A07F9
:1015600040914B0750914C07621B730B840B950BFA
:1015700061567A4E8040904040F08091570790919C
:101580005807019711F40E94970A08950F931F932B
:1015900009E517E0C80164E070E043E050E00E9414
:1015A0009A1FE0913907F0913A07EE0FFF1FE555BA
:1015B000FD4F60817181C8010E94222DC8016BED31
:1015C00071E00E94222DC8016AE070E04DE050E019
:1015D0000E949A1FC8016DED71E00E94222D0E94A9
:1015E000322A20913D0730913E0740913F075091AC
:1015F0004007621B730B840B950B28EE33E040E031
:1016000050E00E941F35DA01C90144E050E060E07B
:1016100070E0481B590B6A0B7B0BC8012AE030E0D5
:101620000E94C02CC80163EE71E00E94222DC80107
:1016300064E070E047E150E00E949A1FC8016EEE3E
:1016400071E00E94222D1F910F910895AF92BF92D9
:10165000CF92DF92EF92FF920F931F9380914405F8
:1016600090914505892B51F58091AB029091AC0288
:101670006AE070E040E050E021E030E000E010E09F
:101680000E944B098091B1029091B2026AE070E031
:1016900048E050E021E030E00E944B0980912207B1
:1016A00090912307892B09F041C08091B30290915A
:1016B000B4026AE070E040E150E034C08091AD02D5
:1016C0009091AE026AE070E040E050E021E030E04E
:1016D00000E010E00E944B098091AF029091B002AF
:1016E0006AE070E048E050E021E030E00E944B0901
:1016F0008091B1029091B2026AE070E040E150E066
:1017000021E030E00E944B0980912207909123074D
:10171000892B61F48091B3029091B4026AE070E089
:1017200048E150E021E030E00E944B092091B502F1
:101730003091B60280913B0790913C078217930746
:1017400024F010923C0710923B070E94830589E524
:1017500097E062E070E046E050E024E030E00EE127
:1017600010E0EE24FF240E94021B00913B07109121
:101770003C07A80193E0440F551F9A95E1F74E5F8F
:101780005F4F83E0000F111F8A95E1F7F80134964F
:1017900089E597E063E070E023E030E00A5F1F4FE7
:1017A000A6E0EA2EF12C6F01E1E0AE2EB12C0E94F2
:1017B0007D1C1F910F91FF90EF90DF90CF90BF9015
:1017C000AF900895CF93DF93EC0180914E059091F7
:1017D0004F05019751F181E090E090934F05809380
:1017E0004E0584EB95E06FEF71E00E94000584EBFD
:1017F00095E0BE010E94EC0484EB95E06FEF71E090
:101800000E94EC048CEF96E064EB75E00E94222DC0
:101810006EE170E080E090E00E94402A10924F0557
:1018200010924E05DF91CF910895FFCF0F931F9334
:1018300009E517E0C8010E945722C80165E070E081
:101840004AE050E00E949A1FC80161E072E00E94E5
:10185000222D89E092E00E94E20BC8010E94F92249
:1018600060ED77E080E090E00E94402A81E090E027
:101870006FEF7FEF0E9405061092560710925507F2
:101880001F910F910895CF93DF93C0914405D0919C
:101890004505C130D105A1F589E597E00E945722A1
:1018A00089E597E065E070E04AE050E00E949A1F09
:1018B00080E192E00E94E20BD0935407C09353075B
:1018C0000E94322A60934D0770934E0780934F0712
:1018D0009093500789E597E069E172E00E94222D1C
:1018E00089E597E00E94F92260ED77E080E090E0E2
:1018F0000E94402A81E090E06FEF7FEF0E94050692
:10190000DF91CF910895EF92FF920F931F938CE197
:1019100097E00E948F178093A7021092A8028CE193
:1019200097E00E949417A0E0B0E0BC01CD010E94B6
:10193000D43320E030E44CE952E40E948A3420E0C1
:1019400034E244E759E40E943B337B018C0160930D
:1019500018077093190780931A0790931B078091BB
:10196000A7029091A8028536910534F084E690E0B4
:101970009093A8028093A7028091A7029091A80259
:10198000C3974CF58091220790912307892B19F575
:10199000C801B7012DEC3CEC4CE450E40E948634C5
:1019A0001816ACF4C801B7012DEC3CEC4CE450E443
:1019B0000E94D63221E137EC4AE35CE30E943B33DC
:1019C0000E94A3337093A8026093A70204C01092F0
:1019D000A8021092A7028091A7029091A80218165F
:1019E00019065CF08091220790912307892B29F436
:1019F00081E080931E070E94430C1F910F91FF907E
:101A0000EF9008950F930E94830C8091220790918C
:101A10002307892B79F40E94C2088091A702909134
:101A2000A8020A9724F48FE192E060E217C083E2F3
:101A300092E013C080911F078823B1F00E94C20872
:101A40008091A7029091A8028436910524F48DE438
:101A500091E068E203C088E491E060E34CE022E0BA
:101A600001E00E943F0832C089E597E060E070E045
:101A700044E050E00E949A1F89E597E06AE272E034
:101A80000E94222D0E94322A20913407309135077E
:101A90004091360750913707621B730B840B950BEF
:101AA000615777418040904018F40E94322A0EC05E
:101AB00089E597E060E070E044E150E00E949A1F01
:101AC00089E597E069E372E00E94222D0F91089565
:101AD000AF92BF92CF92DF92EF92FF920F931F933C
:101AE000DF93CF93CDB7DEB7A6970FB6F894DEBFDE
:101AF0000FBECDBF5EE4C52E52E0D52E7E01089408
:101B0000E11CF11CC701B6010E9400058E01075FB0
:101B10001F4FC801B6010E940005809152059091A7
:101B20005305A0915405B09155050196A11DB11D15
:101B30008093520590935305A0935405B093550597
:101B4000B7014AE050E00E941605C801B7010E94A3
:101B500000054FE4A42E42E0B42EC801B5010E9456
:101B6000EC043CE1C32E37E0D32EC6010E948F1750
:101B700090E0B7014AE050E00E941605C801B701A5
:101B80000E94EC04C801B5010E94EC04C6010E9449
:101B90009417A0E0B0E0BC01CD01A7012AE030E03D
:101BA0000E943705C801B7010E94EC04C801B501C5
:101BB0000E94EC0420E2C22E27E0D22EC6010E9431
:101BC000BF1690E0B7014AE050E00E941605C80138
:101BD000B7010E94EC04C801B5010E94EC04C601E3
:101BE0000E94BB1690E0B7014AE050E00E94160543
:101BF000C801B7010E94EC04C801B5010E94EC04C1
:101C0000C6010E94B71690E0B7014AE050E00E947A
:101C10001605C801B7010E94EC04C801B5010E9475
:101C2000EC04C6010E94B31690E0B7014AE050E010
:101C30000E941605C801B7010E94EC04C80161E5C5
:101C400072E00E94EC04C8010E94E20BA6960FB657
:101C5000F894DEBF0FBECDBFCF91DF911F910F91E2
:101C6000FF90EF90DF90CF90BF90AF9008952091BC
:101C70005005309151058091A5029091A602281738
:101C8000390739F481E090E0909356078093550727
:101C900004C0109256071092550768EE73E080E07A
:101CA00090E02FE037E240E050E00E948C30DC0111
:101CB000CB019093A6028093A50262EE76E04AE003
:101CC00050E00E9416058CEE96E065E572E00E94F9
:101CD00000058CEE96E062EE76E00E94EC048CEE5D
:101CE00096E00E94E20B08950E94322A209141075B
:101CF000309142074091430750914407621B730B98
:101D0000840B950B695873418040904018F40E94F1
:101D1000322A11C0A89580E297E00E94E6160E9440
:101D2000370E0E94322A60934107709342078093D6
:101D30004307909344070E94322A20915605309120
:101D400057054091580550915905621B730B840B40
:101D5000950B663071058105910518F40E94322AB1
:101D600008951092490510924805089581E08093E6
:101D70001E078091550790915607019719F40E940C
:101D8000430C089580E297E00E94D61680E297E027
:101D900061E00E949C160895CF93DF93EC010097B9
:101DA00019F487E060E002C087E061E00E947C2BCC
:101DB000D0935607C0935507D0934505C09344056B
:101DC00010923C0710923B070E94830581E090E04F
:101DD0006FEF7FEF0E940506DF91CF91089580910C
:101DE000530790915407892B41F10E94322A209188
:101DF0004D0730914E0740914F0750915007621B9D
:101E0000730B840B950B6956724480409040A8F088
:101E100080E090E00E94CC0E10925407109253077D
:101E200080911E07813049F480E297E00E94D61627
:101E300080E297E061E00E949C1608950F931F9343
:101E400009E517E0C8010E945722C80165E070E06B
:101E50004AE050E00E949A1FC8016EE572E00E94BD
:101E6000222DC8010E94F9221092540710925307A4
:101E700081E090E00E94CC0E60ED77E080E090E0A1
:101E80000E94402A81E090E065E070E00E94050633
:101E90001F910F9108958091390790913A078230F0
:101EA0009105A1F0833091052CF4009749F001973A
:101EB000A9F409C08330910561F0049779F40CC04E
:101EC0000E941E0F08950E94430C08950E94160C54
:101ED00008950E94970A08950E94B60E08950F93E0
:101EE0001F93CF93DF938C01EB0177FD4FC080915F
:101EF000B7029091B80297FD49C00E94322A209102
:101F00003D0730913E0740913F0750914007621BCB
:101F1000730B840B950B4091B7025091B80228EED9
:101F200033E0F9014E9F90014F9F300D5E9F300DC1
:101F30001124442737FD4095542F261737074807AB
:101F4000590718F00E94322A21C0D093B802C093DA
:101F5000B7020E94322A60933D0770933E07809338
:101F60003F07909340078091420590914305039766
:101F700049F40E944B0F81E090E065E070E00E9420
:101F8000050604C01093430500934205DF91CF91ED
:101F90001F910F91089589E597E00E945722809143
:101FA0004205909143058430910509F454C0853071
:101FB000910570F48130910529F181309105D8F0B7
:101FC0008230910509F43FC0039709F04FC03EC02D
:101FD0008730910539F18830910538F485309105C5
:101FE000E1F0069709F042C022C08830910521F146
:101FF0000997E1F533C00E94060781E090E062E0B6
:1020000070E032C00E94020D8091550790915607F2
:10201000019761F585E090E025C00E94350A87E0D0
:1020200090E020C00E94CD0986E090E01BC00E9495
:10203000BE0788E090E016C00E946F0981E090E042
:102040006AE070E011C00E94260B0AC00E94C60A16
:1020500082E090E007C00E94ED0602C00E941907CE
:1020600081E090E065E070E00E946F0F89E597E005
:102070000E94F92208950F931F9300E217E0C80110
:102080000E946C1664EF71E080E090E00E94402AAC
:10209000C80160E04FE00E947216C80161E00E9432
:1020A0000217482F407F4460C80161E00E94721609
:1020B000C80162E040E40E947216C80164E04CEB83
:1020C0000E9472161F910F9108950F931F9329E29A
:1020D00088E190E00FB6F894A895809360000FBE59
:1020E0002093600087E061E00E94EF2A80E090E0AA
:1020F0000E94CC0E87EE97E00E94D5138CEF96E0FD
:1021000040E855E260E070E00E9441278CE197E0F2
:102110000E944E170E943B1064EF71E080E090E057
:102120000E94402A8AE595E06EE472E00E94000574
:1021300009E517E0C80162E04CE321E00E94AE230C
:10214000C80161E070E00E94A61F82E090E09093D9
:10215000B8028093B7020E94322A60933D077093C1
:102160003E0780933F0790934007109243051092DB
:102170004205109252071092510781E090E090932F
:1021800058078093570704E817E0C80161E776E035
:102190000E949825C80161E576E00E94A025C8014B
:1021A00066E676E00E94A425C80168E476E00E9415
:1021B0009C251F910F9108958091220790912307EC
:1021C0009093AA028093A9028091240790912507F9
:1021D000909329078093280780E297E061E00E94AE
:1021E000021780932C0710922D0780E297E00E943F
:1021F000FE1690E090932B0780932A07AC01447061
:1022000050705595479555954795509323074093A2
:1022100022079C0120733070E4E035952795EA95FC
:10222000E1F7309325072093240720912C07309164
:102230002D072073307074E0359527957A95E1F776
:10224000309327072093260766E0969587956A9531
:10225000E1F790932F0780932E078091A902909128
:10226000AA02892BC9F441305105B1F40E943B10F8
:10227000109238078091570790915807892B11F4D5
:102280000E9434060E94322A609334077093350707
:1022900080933607909337078091A9029091AA0204
:1022A000019789F48091220790912307892B59F493
:1022B0000E943B1080E297E00E94C31681E0809369
:1022C00038070E9423068091220790912307892BCB
:1022D00089F1209128073091290780912407909156
:1022E00025072817390759F00E94322A60933007D2
:1022F0007093310780933207909333071BC00E947D
:10230000322A2091300730913107409132075091A5
:102310003307621B730B840B950B6D5D754080401A
:10232000904028F40E94322A10921F0703C081E0D7
:1023300080931F078091220790912307892B31F406
:1023400080913807882311F40E943B1080E297E0C7
:102350000E94C31681E0809338070895CF93DF93DE
:10236000EC01DC010D900020E9F71197A81BB90BD7
:10237000B0934B05A0934A05FC01EA0FFB1F829125
:102380003196282F332727FD309520533040309346
:102390004D0520934C051A161B06E4F532978081F3
:1023A0008132C1F52A30310500F584E0220F331F58
:1023B0008A95E1F71297C9018E5B994FBE01AD0175
:1023C0000E940705E0914C05F0914D05A4E0EE0F49
:1023D000FF1FAA95E1F780914A0590914B05E80F00
:1023E000F91FE05CF94F10823AC02A303105B9F587
:1023F00087EE96E0BE0144E050E00E94070510928F
:10240000EB0687EE96E00E94CE04909351058093F0
:10241000500525C00E941806CE0165E672E00E94B4
:10242000F704009719F40E94680D19C088EE95E032
:10243000BE010E9400058091220790912307892BFD
:1024400041F48091570790915807892B11F40E940D
:10245000340684E090E09093430580934205DF9139
:10246000CF9108950F931F93DF93CF93CDB7DEB72E
:10247000CA55D0400FB6F894DEBF0FBECDBFAC0139
:10248000DC010D900020E9F71197A81BB90BBE01E4
:102490006F5F7F4F21E030E08D010150104009C097
:1024A000FA01E20FF31F8081FB018193BF012F5FCF
:1024B0003F4F20173107A4F3FE013197EA0FFB1FAE
:1024C0001082CE0101960E94AE11C65ADF4F0FB6A0
:1024D000F894DEBF0FBECDBFCF91DF911F910F915A
:1024E0000895CF93DF938CEF96E00E949126C1E090
:1024F000D0E03EC08CEF96E00E944D28209146052A
:1025000030914705F901E65AFA4F8083F901319677
:10251000F0934705E09346058E3701F58091480515
:10252000909149050197B1F4E65AFA4F10828AE575
:1025300095E00E9432128AE595E06EE472E00E9416
:102540000005109249051092480510924705109217
:10255000460504C0D0934905C09348050E94322A1D
:1025600060935605709357058093580590935905CD
:102570008CEF96E00E946E28892B09F0BBCFDF918B
:10258000CF91089584E897E00E94A8250E947112D7
:102590000E94DC100E94CB0F0E94740E0E94A40ABD
:1025A0000E94EF0E08952CB5382F33702C7F322BFC
:1025B0003CBD2DB590E09595879595958795817053
:1025C0002E7F822B8DBD089581E161E00E947C2BDE
:1025D00081E161E00E94EF2A8CB580618CBD8CB5F1
:1025E00080648CBD8FE061E00E94EF2A80E161E0B1
:1025F0000E94EF2A089581E08093E6076093C30765
:102600001092E4071092E50708952091C20730E088
:102610008091C107281B3109C90108954091C10764
:102620008091C207481718F02FEF3FEF0AC0E42F40
:10263000F0E0EF55F84F8081282F30E04F5F409356
:10264000C107C9010895E091C1078091C207E81749
:1026500018F0EFEFFFEF06C0F0E0EF55F84F808184
:10266000E82FF0E0CF01089508951092EA07109244
:10267000E90788EE93E0A0E0B0E08093EB07909349
:10268000EC07A093ED07B093EE0787ED94E09093ED
:10269000E8078093E7070895CF92DF92EF92FF92C9
:1026A0000F931F93CF93DF937C016B018A0180917D
:1026B000E6078823A1F0C0E0D0E00DC0D701ED917E
:1026C000FC91D601AC0FBD1F0190F081E02DC70138
:1026D0006C9109952196C017D10780F304C0CB01F6
:1026E000642F0E947E14C801DF91CF911F910F913A
:1026F000FF90EF90DF90CF900895DF93CF930F92EC
:10270000CDB7DEB7FC0169838091E6078823C9F065
:102710008091E507803238F081E090E093838283F6
:1027200020E030E015C08091E407E82FF0E0EC53A2
:10273000F84F998190838F5F8093E4078093E5073A
:1027400005C0CE01019661E00E947E1421E030E0D8
:10275000C9010F90CF91DF9108950F93062F8091BB
:10276000C30764EC77E04091E50721E00E9429145B
:102770001092E4071092E5071092E6070F91089572
:1027800061E00E94AD130895413208F040E2862FC7
:1027900061EA77E00E94E0131092C1078093C207BC
:1027A000089521E00E94C41308951092C107109269
:1027B000C2071092E4071092E5070E942A160895B6
:1027C000382F413210F040E042C08091F307882357
:1027D000E1F791E09093F3072093F5078FEF809353
:1027E000600810921B08415040931C084F5F909363
:1027F000F4078091F407330F832B8093F4078091C3
:10280000F607813041F41092F6078091F407809327
:10281000BB0085EC01C085EE8093BC008091F3077E
:102820008130E1F380911B08841710F440911B085C
:1028300020E030E00AC0FB01E20FF31FD901A550F0
:10284000B84F8C9180832F5F3F4F2417A0F3842FC4
:1028500008950F931F93582F122F413210F081E0EB
:102860004AC08091F3078823E1F782E08093F30761
:102870000093F5078FEF8093600810921B08409338
:102880001C08ABEFB7E0FB0102C081918D938E2F46
:10289000861B8417D0F31092F4078091F407550F2C
:1028A000852B8093F4078091F607813041F41092D4
:1028B000F6078091F4078093BB0085EC01C085EE9C
:1028C0008093BC00112321F08091F3078230E1F363
:1028D000809160088F3F11F480E00DC08091600806
:1028E000803211F482E007C080916008803311F0DB
:1028F00084E001C083E01F910F910895482F613259
:1029000010F081E008958091F307843011F082E0A7
:10291000089560933E08ADE1B8E0842F9C01F90171
:1029200002C081918D938E2F841B8617D0F380E097
:1029300008951F920F920FB60F9211242F933F9379
:102940004F935F936F937F938F939F93AF93BF93B7
:10295000EF93FF938091B90090E0887F907080366C
:10296000910509F4F2C081369105CCF588329105C4
:1029700009F47BC089329105B4F48031910509F4E2
:102980006FC0813191053CF4009709F447C1089765
:1029900009F04FC165C08831910509F466C0809780
:1029A00009F047C182C08034910509F4A4C0813484
:1029B000910544F48033910509F482C0C89709F069
:1029C00038C189C08035910509F489C088359105E1
:1029D00009F496C08834910509F02BC1AEC088393E
:1029E000910509F413C189399105ECF488379105F3
:1029F00009F4ABC0893791054CF48836910509F488
:102A0000A4C08037910509F014C19FC08838910592
:102A100009F4FCC08039910509F49DC08038910506
:102A200009F007C198C0803B910509F4C6C0813BFD
:102A300091054CF4803A910509F49FC0883A9105BC
:102A400009F0F7C0BAC0803C910509F4E3C0883CA6
:102A5000910509F4DFC0883B910509F0EAC0C2C0C6
:102A60008091F4078093BB00CFC090911B088091A8
:102A70001C08981768F490911B08E92FF0E0E550C6
:102A8000F84F80818093BB009F5F90931B08BCC070
:102A90008091F507882309F44BC085ED8093BC0035
:102AA0008091BC0084FDFCCFC2C080E280936008AE
:102AB00085ED8093BC008091BC0084FDFCCFB7C045
:102AC00080E38093600885ED8093BC008091BC001A
:102AD00084FDFCCFACC088E3809360089BC08091EC
:102AE0001B089091BB00E82FF0E0E550F84F908371
:102AF0008F5F80931B0890911B0880911C0882C0F7
:102B000080911B089091BB00E82FF0E0E550F84F52
:102B100090838F5F80931B088091F507882341F095
:102B200085ED8093BC008091BC0084FDFCCF7FC00C
:102B300081E08093F60784EA6EC085ED8093BC0047
:102B40008091BC0084FDFCCF72C083E08093F307CA
:102B500010925F0859C080915F08803208F056C01B
:102B600080915F089091BB00E82FF0E0E15CF74FA7
:102B700090838F5F80935F0847C080915F088032A9
:102B800030F4E0915F08F0E0E15CF74F108285EDF2
:102B90008093BC008091BC0084FDFCCF1092F307B1
:102BA00060915F08E091F907F091FA078FE398E0F0
:102BB00070E0099510925F082DC084E08093F307C0
:102BC00010923D0810923E08E091F707F091F80747
:102BD000099580913E08882329F481E080933E087E
:102BE00010921D0890913D08E92FF0E0E35EF74F49
:102BF00080818093BB009F5F90933D0890913D083A
:102C000080913E08981710F485EC01C085E8809308
:102C1000BC000FC085EC8093BC0009C01092600816
:102C200085ED8093BC008091BC0084FDFCCF1092A8
:102C3000F307FF91EF91BF91AF919F918F917F919A
:102C40006F915F914F913F912F910F900FBE0F9019
:102C50001F9018951092F30781E08093F50710926A
:102C6000F60782E061E00E947C2B83E061E00E9435
:102C70007C2BE9EBF0E080818E7F808380818D7FEB
:102C8000808388E48093B80085E48093BC00089535
:102C9000FC018BE690E0918380830895EF92FF9290
:102CA0000F931F93FC01F62EE42E07EE17E06081D0
:102CB0007181C8010E94FB12C8016F2D0E947D1313
:102CC000C8016E2D0E947D13C8010E94C0131F9180
:102CD0000F91FF90EF90089561E040E80E944E163A
:102CE00081E008950E944E160895DF92EF92FF92C0
:102CF0000F931F937C01D62E07EE17E0FC01608135
:102D00007181C8010E94FB12C8016D2D0E947D13C4
:102D1000C8010E94C013F70160817181C80141E0C0
:102D200050E00E94D113C8010E940E131F910F9111
:102D3000FF90EF90DF9008951F93CF93DF93EC0106
:102D4000162F67E00E947516482F113011F4426368
:102D500001C04F7DCE0167E00E944E1681E0DF91F9
:102D6000CF911F91089564E00E947516089562E066
:102D70000E947516089560E00E947516089560E03F
:102D80000E94751608950F931F938C0161E00E94B5
:102D90007516482F4062C80161E00E944E16C801B6
:102DA00061E00E9475161F910F9108950F931F9374
:102DB0008C0165E00E947516482F4F7CC80165E0C4
:102DC0000E944E1681E01F910F9108950F931F935B
:102DD0008C0161E00E947516482F4064C80161E0D3
:102DE0000E944E16C80169E00E947516880F892F4F
:102DF000881F990B91951F910F91089568E00E948B
:102E0000751608950E9475160895FC0186E390E0FA
:102E1000918380830895EF92FF920F931F93FC019B
:102E2000F62EE42E07EE17E060817181C8010E9442
:102E3000FB12C8016F2D0E947D13C8016E2D0E94E8
:102E40007D13C8010E94C0131F910F91FF90EF9056
:102E50000895DF92EF92FF920F931F93FC01F62EDD
:102E6000D42EE52E07EE17E060817181C8010E9423
:102E7000FB12C8016F2D0E947D13C8016E2D0E94A8
:102E80007D13C8016D2D0E947D13C8010E94C013DF
:102E90001F910F91FF90EF90DF9008950F931F9374
:102EA0008C016EEF40E054E50E942917C8016AE1E9
:102EB00040E00E940B1781E01F910F910895DF926F
:102EC000EF92FF920F931F937C01D62E07EE17E02F
:102ED000FC0160817181C8010E94FB12C8016D2D47
:102EE0000E947D13C8010E94C013F70160817181A7
:102EF000C80142E050E00E94D113C8010E940E13A5
:102F0000F82EC8010E940E133F2D20E0282B392BEC
:102F1000C9011F910F91FF90EF90DF90089564E039
:102F20000E945F17892F089562E00E945F1708953D
:102F3000FC011382128287EE94E091838083758373
:102F40006483578346837187608753874287158AD6
:102F5000158614861786168621E0248B8FEF9FEF47
:102F6000938B828B918B808B268B08952F923F922F
:102F70004F925F926F927F928F929F92AF92BF9289
:102F8000CF92DF92EF92FF920F931F93DF93CF9335
:102F9000CDB7DEB762970FB6F894DEBF0FBECDBFD8
:102FA0009A8B898B3B014A01670151E0A52EB12C18
:102FB000A21AB30AC901880F991F44275527481B35
:102FC000590B58874F83C40101979C838B83DB0186
:102FD0001197BA83A98314010894211C311C2B0179
:102FE0000894411C511C7901E1E0F0E0FA87E9877F
:102FF0001E821D8210E0A801447050705C874B87D0
:10300000C801827090709E878D87D801A870B070BB
:10301000B88BAF8701701070B7C0B7FC0AC00894B6
:10302000E108F108EF81F8853296F887EF83AE0E5C
:10303000BF1E4D815E814F5F5F4F5E834D838985EB
:103040009A8502969A878987AB85BC85AB2BF1F070
:10305000A989BA89ED91FC911197A701480D591DD5
:103060000480F581E02DCD01B20196010995A98971
:10307000BA89ED91FC911197B701660D771D048017
:10308000F581E02DCD01A10196010995ED85FE8523
:10309000EF2BF9F0A989BA89ED91FC911197A40160
:1030A0004E195F090480F581E02DCD01B201960132
:1030B0000995A989BA89ED91FC911197B701660D1F
:1030C000771D0480F581E02DCD014B815C81960157
:1030D0000995EF85F889EF2BF9F0A989BA89ED9167
:1030E000FC911197B3016E197F090480F581E02DE1
:1030F000CD01A10196010995A989BA89ED91FC91AB
:103100001197A701480D591D0480F581E02DCD01CF
:1031100069817A81960109950115110501F1A98945
:10312000BA89ED91FC911197B3016E197F09048062
:10313000F581E02DCD014B815C8196010995A9892E
:10314000BA89ED91FC911197A4014E195F09048091
:10315000F581E02DCD0169817A8196010995E98596
:10316000FA85AE0EBF1E4B815C81415050405C839E
:103170004B8389819A8101979A8389830894211CC2
:10318000311C0894411C511CAD81BE81AE15BF0598
:103190000CF443CF62960FB6F894DEBF0FBECDBFDE
:1031A000CF91DF911F910F91FF90EF90DF90CF9023
:1031B000BF90AF909F908F907F906F905F904F9057
:1031C0003F902F9008952F923F924F925F926F926F
:1031D0007F928F929F92AF92BF92CF92DF92EF92A7
:1031E000FF920F931F93DF93CF93CDB7DEB72E9748
:1031F0000FB6F894DEBF0FBECDBF9E878D871B0133
:103200005E834D83A701260171E0C72ED12CC21A1F
:10321000D30AC901880F991F66277727681B790B86
:103220007A8369836D807E8008946108710883E0E9
:10323000882E912C8E0C9F1C790181E090E09C835C
:103240008B83AA24BB2410E0D801A170B070B8878A
:10325000AF83FA013196FA87E987B801627070701E
:103260007C876B8777C0D7FC0AC00894E108F10817
:1032700089819A8102969A838983C80ED91E0894FF
:10328000A11CB11CAB81BC811296BC83AB83EF81C6
:10329000F885EF2B41F1AD85BE85ED91FC9111973D
:1032A000B501620D731D4D815E814E195F09970155
:1032B000220F331F89859A85280F391F0084F185D5
:1032C000E02DCD0182010995AD85BE85ED91FC9182
:1032D0001197B701620D731D0084F185E02DCD01BA
:1032E000A30194010995EB85FC85EF2B41F1AD8598
:1032F000BE85ED91FC911197B1016A197B094D8151
:103300005E814E195F099701220F331F89859A85C7
:10331000280F391F0084F185E02DCD018201099528
:10332000AD85BE85ED91FC911197B1016E197F09B4
:103330000084F185E02DCD01A30194010995EB8175
:10334000FC81CE0EDF1E08946108710862E070E017
:10335000860E971EAE14BF040CF485CF2E960FB6C2
:10336000F894DEBF0FBECDBFCF91DF911F910F91BB
:10337000FF90EF90DF90CF90BF90AF909F908F9095
:103380007F906F905F904F903F902F9008952F9275
:103390003F924F925F926F927F928F929F92AF92E5
:1033A000BF92CF92DF92EF92FF920F931F93DF9322
:1033B000CF9300D000D0CDB7DEB73C017C836B83C8
:1033C0006A015901FA82E982222433249801241BDC
:1033D000350B37FF03C0309521953F4FC5014B8119
:1033E0005C81841B950B97FF03C0909581959F4F3F
:1033F000821793075CF481E0282E312CC601CB8024
:10340000DC809C838B83C80185015C018B819C815E
:10341000A816B90644F4C501AB80BC809C838B839D
:10342000C80186016C012501AB81BC814A1A5B0A87
:103430007801EC18FD08F7FE04C0F094E194F1085F
:10344000F394C016D10624F088248A94982C03C0E3
:10345000B1E08B2E912CC20162E070E00E940C352D
:103460008B0125C0D301ED91FC912114310441F071
:103470000480F581E02DC301B6014B815C8107C05A
:103480000480F581E02DC3016B817C81A601298137
:103490003A8109950E191F0917FF04C0C80CD91CE1
:1034A000040D151DEB81FC813196FC83EB834B8170
:1034B0005C81A416B506B4F60F900F900F900F9094
:1034C000CF91DF911F910F91FF90EF90DF90CF9000
:1034D000BF90AF909F908F907F906F905F904F9034
:1034E0003F902F9008954F925F926F927F928F92AC
:1034F0009F92AF92BF92CF92DF92EF92FF920F9383
:103500001F936C015B014A0139012801DC01ED9137
:10351000FC910284F385E02D87010995D601ED9198
:10352000FC91A40141505040440D551D0284F38587
:10353000E02DC601B50193010995D601ED91FC91ED
:103540000084F185E02DC601B501A4019201099521
:10355000D601ED91FC910894A108B108A60CB71C06
:103560000084F185E02DC601B501A4019201099501
:103570001F910F91FF90EF90DF90CF90BF90AF9091
:103580009F908F907F906F905F904F900895CF9213
:10359000DF92EF92FF920F931F93DC016B01780192
:1035A000ED91FC918A0101501040020F131F06801B
:1035B000F781E02D960109951F910F91FF90EF90F3
:1035C000DF90CF900895CF92DF92EF92FF920F930A
:1035D0001F93DC016A01C9017801ED91FC911197FB
:1035E0009B0121503040280F391F0680F781E02DC4
:1035F000CD01860109951F910F91FF90EF90DF900B
:10360000CF9008956F927F928F929F92AF92BF92C8
:10361000CF92DF92EF92FF920F931F93CF93DF939E
:103620005C013A0169014801EB01C60ED71E0DC0CD
:10363000D501ED91FC910084F185E02DC501BE011D
:10364000A3019401870109952196CC15DD0584F32A
:10365000DF91CF911F910F91FF90EF90DF90CF906E
:10366000BF90AF909F908F907F906F900895EF9252
:10367000FF920F931F93FC017B01A081B1812085F4
:103680003185028513851E960D90BC91A02D60E0BA
:1036900070E040E050E0FD0109951F910F91FF900F
:1036A000EF9008952F923F924F925F926F927F9288
:1036B0008F929F92AF92BF92CF92DF92EF92FF9242
:1036C0000F931F93DF93CF93CDB7DEB728970FB635
:1036D000F894DEBF0FBECDBF5C0178876F831A01FF
:1036E00049011E830D832701CB018E0D9F1D9C83F5
:1036F0008B83EE0CFF1CF094E194F108F394D70156
:10370000A20FB31FBA83A983D501ED91FC91028466
:10371000F385E02DC5016B817C8129813A81860189
:1037200009956D807E80620C731C08946108710895
:10373000D501ED91FC910284F385E02DC5016B81EB
:103740007C81A30129813A810995240C351CED81E6
:10375000FE81EE0EFF1ED501ED91FC910084F185F6
:10376000E02DC5016F817885A10197010995EF8151
:10377000F8858E0E9F1E089481089108D501ED9161
:10378000FC910084F185E02DC501B401A1019701F0
:103790000995C5016B817C81A101920101E076014F
:1037A0000E94B61784189508C501B401A1019201C1
:1037B00002E00E94B61764187508C501B401A301A0
:1037C000920104E00E94B617C5016B817C81A301C0
:1037D000920108E00E94B61728960FB6F894DEBF53
:1037E0000FBECDBFCF91DF911F910F91FF90EF9052
:1037F000DF90CF90BF90AF909F908F907F906F9011
:103800005F904F903F902F9008952F923F924F924C
:103810005F926F927F928F929F92AF92BF92CF9260
:10382000DF92EF92FF920F931F93DF93CF9300D01D
:1038300000D000D0CDB7DEB72C015B015E834D8395
:103840003C832B83480137011601C701860F971F60
:103850009A8389836701CC0CDD1CD094C194D10874
:10386000D394D201ED91FC912C0D3D1D0684F7857A
:10387000E02DC20169817A8171010995ED81FE8196
:10388000E60DF71DFE83ED830894810891088C0CEA
:103890009D1C0894A108B1088B819C81A80EB91EBB
:1038A000A618B708C201B501AF01930101E0740188
:1038B00061010E94E318C20169817A814D815E81B4
:1038C000930102E00E94E31826960FB6F894DEBF3B
:1038D0000FBECDBFCF91DF911F910F91FF90EF9061
:1038E000DF90CF90BF90AF909F908F907F906F9020
:1038F0005F904F903F902F9008952F923F924F925C
:103900005F926F927F928F929F92AF92BF92CF926F
:10391000DF92EF92FF920F931F93DF93CF93CDB778
:10392000DEB7E6970FB6F894DEBF0FBECDBF9C871B
:103930008B877E876D871A0139011CAB0BABD88A48
:10394000CF86BA8AA98A0417150744F43B013E873B
:103950002D878BA99CA95CAB4BAB1C012BA93CA967
:103960004F855889421753075CF4C70173013C0126
:103970008F8598896BA97CA9788B6F879CAB8BAB63
:103980008BA99CA98215930554F4C3016D847E8490
:103990009E878D878BA99CA93CAA2BAA1C01AF8569
:1039A000B8892A163B0671F5ED85FE856E167F06F1
:1039B0001CF4B3019F010BC02D853E8526153705EC
:1039C0001CF4B901930103C06D857E859B01E61649
:1039D000F70614F4B70104C02E153F050CF4970147
:1039E000AB85BC85ED91FC9111972F5F3F4F261B56
:1039F000370B0284F385E02DCD01A10109891A89D5
:103A000009953BC19301ED85FE852E1B3F0B8BA9CC
:103A10009CA982199309A7014E1B5F0B58874F83FE
:103A20006F857889621973097E836D83D701A61922
:103A3000B709BC83AB83EF85F8894BA95CA9E41B6C
:103A4000F50BFA83E9836F8578894617570719F4D0
:103A50005A87498705C0ABA9BCA91197BA87A9871E
:103A60002101882499245401CC24DD247601AC0161
:103A7000662757FD6095762F4BA35CA36DA37EA3AD
:103A80006D817E81882777FD8095982F6FA378A719
:103A900089A79AA7C901AA2797FDA095BA2F8BA736
:103AA0009CA7ADA7BEA72F813885442737FD409539
:103AB000542F2FA738AB49AB5AAB44C0C501B40152
:103AC0002BA13CA14DA15EA10E9441350D851E8513
:103AD000020F131FC701B6012FA138A549A55AA58A
:103AE0000E944135AD85BE85A20FB31FA017B10757
:103AF0001CF4CD01D8018C014BA55CA56DA57EA55C
:103B0000840E951EA61EB71E6FA578A989A99AA92D
:103B1000C60ED71EE81EF91EEB85FC8580819181BB
:103B20001196A01BB10BFC010284F385E02D8B855F
:103B30009C85B801A2019D0109891A8909950894FB
:103B4000411C511C29853A85241535050CF0B6CF4A
:103B5000C2014BA95CA9841B950BBC01AB81BC8144
:103B60006A9FC0016B9F900D7A9F900D11244C01AC
:103B7000AA2497FCA094BA2CC20182199309FC01D3
:103B80002F813885E29FC001E39F900DF29F900D39
:103B900011246C01EE24D7FCE094FE2C49815A815B
:103BA000662757FD6095762F4B8B5C8B6D8B7E8BDC
:103BB0006D817E81882777FD8095982F6F8B788F18
:103BC000898F9A8FCD01AA2797FDA095BA2F8B8F49
:103BD0009C8FAD8FBE8F442737FD4095542F2F8F7C
:103BE00038A349A35AA343C0C501B4012B893C891A
:103BF0004D895E890E9441358301020F131FC70161
:103C0000B6012F89388D498D5A8D0E944135AD8579
:103C1000BE85A20FB31FA017B1071CF4CD01D801B8
:103C20008C014B8D5C8D6D8D7E8D840E951EA61E38
:103C3000B71E6F8D78A189A19AA1C60ED71EE81E66
:103C4000F91EEB85FC85808191811196A01BB10B3B
:103C5000FC01228433848B859C85B801A2019D01DF
:103C600009891A89F10109950894411C511C2F8575
:103C70003889241535050CF0B7CFE6960FB6F894C1
:103C8000DEBF0FBECDBFCF91DF911F910F91FF908F
:103C9000EF90DF90CF90BF90AF909F908F907F90EC
:103CA0006F905F904F903F902F9008952F923F928A
:103CB0004F925F926F927F928F929F92AF92BF923C
:103CC000CF92DF92EF92FF920F931F93DF93CF93E8
:103CD000CDB7DEB72F970FB6F894DEBF0FBECDBFBE
:103CE0005C015E834D8318870F83FA86E986CB8655
:103CF000DC0118968D919C911997681779070CF043
:103D0000A4C01A968D919C911B97481759070CF0E7
:103D10009CC0EC2DF0E0FF87EE87CF01880F991F44
:103D20008E0F9F1F880F991F860F971F1816190651
:103D30000CF08BC0CF0103E0880F991F0A95E1F7C3
:103D4000840F951F181619060CF07FC085E0289F78
:103D5000A00111245A8349832B011B011C825C8121
:103D6000553011F480E005C0E981FA81E455FF4F38
:103D700084912C863D866D807E8043011B82C82EF7
:103D8000DD2480FF1CC0D501ED91FC91BB85B130D5
:103D900049F40480F581E02DC501B201A3012F8112
:103DA000388522C00684F785E02DC5016C857D85A8
:103DB000A4012E853F858901EF80F88423C0E98521
:103DC000FA852F813885E217F307E9F0D501ED91E7
:103DD000FC91BB85B13051F40480F581E02DC50123
:103DE000B201A30129853A8509950DC00684F7859E
:103DF000E02DC5016C857D85A4012E853F85890157
:103E0000E984FA840995EB81EF5FEB832E853F858A
:103E1000820E931E0894611C711CE83021F0D59429
:103E2000C7948C2DACCF3C813F5F3C834E855F8532
:103E3000240E351E0894411C511C89819A810196DB
:103E40009A838983363009F08ACF2F960FB6F8947B
:103E5000DEBF0FBECDBFCF91DF911F910F91FF90BD
:103E6000EF90DF90CF90BF90AF909F908F907F901A
:103E70006F905F904F903F902F900895CF92EF9268
:103E8000FF920F931F93CF93DF93EC01262F6A309D
:103E900061F42C8930E013E0220F331F1A95E1F70B
:103EA0008E859F85820F931F37C06D30C9F16C8559
:103EB0007D854E855F8508891989EA88FB88CC88CD
:103EC0000E94561E2C8986E0289FB00111248C8503
:103ED0009D85680F791F7D876C878E89882301F106
:103EE000422F50E08AEF9FEF9C01429FC001439F09
:103EF000900D529F900D112428853985820F931FB4
:103F0000861797076CF4B3E0440F551FBA95E1F795
:103F10008E859F85840F951F9F878E871D861C86A3
:103F200081E090E0DF91CF911F910F91FF90EF9092
:103F3000CF900895FC017587648757874687089559
:103F4000FC01662309F461E0648B0895FC01738B26
:103F5000628B718B608B0895FC0185890895FC014B
:103F6000808591850895FC01828593850895089543
:103F7000EF92FF920F931F93CF93DF93DC01EB013E
:103F80007A0155968C915597823061F08330F1F02B
:103F9000813031F51496ED91FC9115973197E41B22
:103FA000F50B31C116968D919C9117970197AC0135
:103FB0004E195F097A0114968D919C911597AC0169
:103FC000461B570BEA01C21BD30B0AC016966D9114
:103FD0007C9117976C1B7D0B621B730BFA0113C14D
:103FE000F7FEAEC012C114968D919C911597E817FB
:103FF000F9070CF00AC177FF04C0260F371F60E0F5
:1040000070E016964D915C911797C901860F971F26
:10401000481759071CF49A01261B370B1216130672
:104020000CF0F3C0962F862F869586958695A82F3F
:10403000B0E0B695BA2FAA27B795A795A754BD4F5C
:10404000AE0FBF1F977071F138E0391B432F50E05E
:10405000FA01EF53FB4FE081231750F4421B510943
:104060008FEF90E002C0959587954A95E2F7E82397
:104070000130110539F00130110538F00230110519
:1040800059F407C08C918E2B06C0E0958C918E233D
:1040900002C08C918E278C93231708F4B6C0231B83
:1040A000A058BF4F283060F10230110559F4FD01CE
:1040B000922F808180958083E058FF4F98509830F0
:1040C000C0F70EC00130110511F090E001C09FEF64
:1040D000FD01822F9083E058FF4F88508830D0F741
:1040E000822F8850282F277086958695869590E098
:1040F00001969695982F882797958795A80FB91FB1
:10410000222309F482C0E22FF0E0E770F070E75458
:10411000FB4F20810130110541F00130110540F0C5
:104120000230110509F071C008C08C91822B03C0C8
:1041300020958C9182238C9368C08C918227FBCF31
:1041400016968D919C911797E816F9060CF05DC0B4
:10415000D7FF04C02C0F3D1FC0E0D0E014964D9156
:104160005C911597C9018C0F9D1F481759071CF4C6
:104170009A012C1B3D0B121613060CF046C0C7010A
:1041800068E070E00E940C35DB01B695BA2FAA27D3
:10419000B795A795A754BD4FAC0FBD1F57E0E522BB
:1041A000FF2481E090E002C0880F991FEA94E2F7B3
:1041B000982F0130110551F00130110570F00230D7
:1041C000110519F519C08C91892B8D932150304020
:1041D0008FEF2F3F3807B9F718C0909503C08C9127
:1041E00089238D93215030404FEF2F3F3407B9F78B
:1041F0000CC08C9189278D93215030405FEF2F3F69
:104200003507B9F702C0F7FFEECEDF91CF911F91CE
:104210000F91FF90EF9008950F931F93CF93DF932B
:10422000DC01E90155968C915597823071F083300D
:1042300001F1813039F514962D913C911597241B8D
:10424000350B2C1B3D0BFB012BC114968D919C91C2
:10425000159701979C01261B370BB90116968D9176
:104260009C9117979C01241B350BA9014C1B5D0BDE
:1042700009C01696ED91FC9117973197E61BF70B45
:104280009A010EC177FF61C00DC116968D919C9168
:104290001797E817F9070CF005C137FF04C0C20FE4
:1042A000D31F20E030E014964D915C911597CE011C
:1042B000820F931F481759071CF4EA01C21BD30B46
:1042C0001C161D060CF0EEC0CF0168E070E00E94E5
:1042D0000C35DB01B695BA2FAA27B795A795A75439
:1042E000BD4FA20FB31FE770F07081E090E002C0F5
:1042F000880F991FEA95E2F7982F0130110559F0C0
:104300000130110570F00230110509F0CBC017C063
:104310008C91892B8D9321973FEFCF3FD307C1F726
:10432000C1C0909503C08C9189238D9321978FEF05
:10433000CF3FD807C1F7B6C08C9189278D932197BD
:104340002FEFCF3FD207C1F7ADC014968D919C914E
:104350001597681779070CF0A5C057FF04C0C40F64
:10436000D51F40E050E016962D913C911797CE0155
:10437000840F951F281739071CF4E901C41BD50BBE
:104380001C161D060CF08EC02C2F842F869586954A
:104390008695A82FB0E0B695BA2FAA27B795A7950E
:1043A000A754BD4FA60FB71F477071F138E0341BFB
:1043B000432F50E0FA01EF53FB4FE081C31750F455
:1043C0004C1B51098FEF90E002C0959587954A9557
:1043D000E2F7E8230130110539F00130110538F01A
:1043E0000230110559F407C08C918E2B06C0E09560
:1043F0008C918E2302C08C918E278C93231708F406
:1044000051C0231BA058BF4F283060F10230110566
:1044100059F4FD01922F808180958083E058FF4FF1
:1044200098509830C0F70EC00130110511F090E09F
:1044300001C09FEFFD01822F9083E058FF4F88500D
:104440008830D0F7822F8850282F27708695869540
:10445000869590E001969695982F88279795879551
:10446000A80FB91F2223F1F0E22FF0E0E770F070FF
:10447000E754FB4F20810130110539F0013011055F
:1044800038F00230110571F407C08C91822B06C000
:1044900020958C91822302C08C9182278C9302C03C
:1044A000F7FFF3CEDF91CF911F910F91089580E038
:1044B00092E0E9EBF2E0DF019C011D9221503040D7
:1044C000E1F708951F93DC01162F59968C915997A7
:1044D0008F3F09F469C09396ED91FC919497808188
:1044E00099969C919997892B80839596ED91FC9153
:1044F000969790819A968C919A978095892380833C
:104500009396ED91FC919497908199968C919997BF
:104510008095892380835E968C915E97882331F005
:104520006EBD0DB407FEFDCF8EB534C030E840E05F
:1045300050E070E09196ED91FC9192979081989661
:104540008C919897809589238083832F90E0862390
:1045500097235F96ED91FC91909797962C91979762
:10456000892B21F08081822B808304C0808120955B
:10457000282320839196ED91FC91929780819896C3
:104580009C919897892B808336954F5F5F4F483079
:10459000510581F69396ED91FC91949780819996BF
:1045A0009C91892B808317C057966C91772767FD64
:1045B000709587EE97E00E94FB1287EE97E060E02F
:1045C0000E947D1387EE97E0612F0E947D1387EE96
:1045D00097E00E94C0131F9108956EEA0E94622224
:1045E0000895662311F067EA01C066EA0E9462221C
:1045F0000895CF92DF92EF92FF920F931F93CF9384
:10460000DF93EC0161E20E946222CE0160E00E9431
:104610006222CE016FE70E946222CE0162E20E9416
:104620006222CE0160E00E946222CE0163E00E941D
:104630006222898D8F3F09F454C0EBA1FCA18081D7
:1046400099A5892B8083EDA1FEA180819AA5892B54
:104650008083EBA1FCA1908189A58095892380832B
:10466000A9EBB2E09C918E8D882331F09EBD0DB4F4
:1046700007FEFDCF8EB529C030E840E050E0692F3D
:1046800070E0E9A1FAA1908188A5809589238083B3
:10469000832F90E086239723EF8DF8A12FA1892BFC
:1046A00021F08081822B808304C080812095282383
:1046B0002083E9A1FAA1808198A5892B8083369572
:1046C0004F5F5F4F48305105E1F6119684E0A93BFA
:1046D000B80741F6EBA1FCA1808199A5892B8083C5
:1046E00034C00091B8008CE08093B800EE24FF2421
:1046F0006F89772767FD709587EE97E00E94FB1220
:1047000087EE97E060E40E947D1359EBC52E52E0DE
:10471000D52ECE0CDF1C10E087EE97E0F6016191FC
:104720006F010E947D131F5F1031B1F780E190E0AF
:10473000E80EF91E87EE97E00E94C01390E0E9169C
:1047400092E0F906A9F60093B800DF91CF911F918E
:104750000F91FF90EF90DF90CF9008950F931F93EC
:10476000CF93DF93EC01162F022F688F4F8B898D2B
:104770008F3F09F479C08B8D61E00E94EF2A8D8D07
:1047800061E00E94EF2AED8D2E2F332727FD309513
:10479000F901E359F94FE491F0E0EE0FFF1FEF5AF2
:1047A000F94F859194919CA38BA32557394FF9011B
:1047B000849189A7EB8D2E2F332727FD3095F901A2
:1047C000E359F94FE491F0E0EE0FFF1FEF5AF94F74
:1047D000859194919EA38DA32557394FF90184911A
:1047E0008AA78E8D882309F036C0898D61E00E94EA
:1047F000EF2A8A8D61E00E94EF2AEA8D2E2F33275F
:1048000027FD3095F901E359F94FE491F0E0EE0FFF
:10481000FF1FEF5AF94F859194919AA389A32557C9
:10482000394FF901849188A7E98D2E2F332727FD71
:104830003095F901E359F94FE491F0E0EE0FFF1FD5
:10484000EF5AF94F8591949198A38F8F2557394F3F
:10485000F90184918FA38E8D882351F00E94E41278
:1048600084E00E94D31204C087EE97E00E94D51323
:104870000023E1F08C8D61E00E94EF2A8C8D61E0D5
:104880000E947C2B61E070E080E090E00E94402A72
:104890008C8D60E00E947C2B6AE070E080E090E00C
:1048A0000E94402A8C8D61E00E947C2BCE016EEA32
:1048B0000E946222CE0165ED0E946222CE0160E874
:1048C0000E946222CE0168EA0E946222CE016FE15C
:1048D0000E946222CE0163ED0E946222CE0160E05E
:1048E0000E946222CE0160E40E946222CE016DE845
:1048F0000E946222113019F4CE0160E102C0CE01A3
:1049000064E10E946222CE0160E20E946222CE0136
:1049100060E00E946222CE0161EA0E946222CE0122
:1049200068EC0E946222CE016AED0E946222CE01F2
:1049300062E00E946222CE0161E80E946222CE0102
:104940006FE80E946222CE0169ED0E94622211305E
:1049500019F4CE0162E202C0CE0161EF0E94622230
:10496000CE016BED0E946222CE0160E40E946222C1
:10497000CE0164EA0E946222CE0166EA0E946222AF
:10498000CE016FEA0E946222DF91CF911F910F91B9
:104990000895FF920F931F938C01F62E60E870E04C
:1049A00040E250E00E9498178FEF94E0F801918365
:1049B00080838FEF818F858F838F828FF48E1F91FD
:1049C0000F91FF900895CF92DF92EF92FF920F9395
:1049D0001F93CF93DF938C017B01EA01690177FD7F
:1049E0009EC00E94AF1FE816F9060CF098C0D7FDD4
:1049F00096C0C8010E94B31FC817D9070CF08FC01A
:104A000081C0F8018481958101978C1B9D0BE70182
:104A10007C0118C0F8018481958101979C012E19B1
:104A20003F097901868197810197FC01EC1BFD0B01
:104A3000EF0108C0F8018681978101978E199F09BF
:104A40007E01EC01F1E0CF16D10451F021E0C21655
:104A5000D10400F132E0C316D10409F060C036C0C1
:104A6000CE0168E070E00E940C35FB01F695FE2F48
:104A7000EE27F795E795EE0DFF1DE754FD4FC77044
:104A8000D07002C0CC0CDD1CCA95E2F780818C2965
:104A9000808345C0CE0168E070E00E940C35FB01C8
:104AA000F695FE2FEE27F795E795EE0DFF1DE754DF
:104AB000FD4FC770D07081E090E002C0880F991F51
:104AC000CA95E2F78095208128231AC0CE0168E0BC
:104AD00070E00E940C35FB01F695FE2FEE27F7954E
:104AE000E795EE0DFF1DE754FD4FC770D07081E0D4
:104AF00090E002C0880F991FCA95E2F7208128270D
:104B000020830DC0C8010E94AC1F823009F482CFFF
:104B1000833009F48FCF813009F094CF72CFDF91C9
:104B2000CF911F910F91FF90EF90DF90CF9008955C
:104B3000FC01748763870895FC0176876587089573
:104B4000FC01748B638B0895FC01768B658B089553
:104B5000CF92DF92EF92FF920F931F93CF93DF9349
:104B6000EC0188810E94AF2B6C010E94322A7B01EC
:104B70008C018F89988D009779F488859985C8165E
:104B8000D90609F087C081E090E0988F8F8BE98E7D
:104B9000FA8E0B8F1C8F7EC081309105C1F58E81FE
:104BA0009F81C816D90619F482E090E02DC088854F
:104BB0009985C816D90609F06DC08C819D81AA27F8
:104BC00097FDA095BA2F298D3A8D4B8D5C8D820F64
:104BD000931FA41FB51F8E159F05A007B10708F0EE
:104BE00059C081E08A87EF85F889309709F00995E7
:104BF000E989FA89309709F00995ED89FE8930979E
:104C000009F0099586E090E0988F8F8B43C0823041
:104C10009105F1F48A819B81AA2797FDA095BA2F6F
:104C2000298D3A8D4B8D5C8D820F931FA41FB51F6C
:104C30008E159F05A007B10718F4EB85FC851DC0F4
:104C400088859985C816D90629F583E090E0DCCFE0
:104C50008330910541F48E819F81C816D906D1F425
:104C6000ED85FE850AC00697A9F48E819F81C8163E
:104C7000D90649F41A86EB89FC89309709F0099521
:104C8000188E1F8A07C081E08A87ED89FE893097D8
:104C900009F00995DF91CF911F910F91FF90EF904F
:104CA000DF90CF900895EF92FF920F931F93CF93D1
:104CB000DF93EC018B017A01862F60E00E94EF2ADE
:104CC0000883198388E592E09B838A8388EE93E0CA
:104CD0009D838C83188E1F8A1A86EF2859F081E0F5
:104CE00090E09F838E8319861886802F61E00E9452
:104CF0007C2B06C01F821E8281E090E09987888706
:104D00001E861D86188A1F861A8A198A1C8A1B8A83
:104D10001E8A1D8ADF91CF911F910F91FF90EF9016
:104D20000895FC0180916108909162088E179F0799
:104D300011F480E00895838D8E7F838F9FB7F89460
:104D40001092A3088091A3088093A408F0936208AE
:104D5000E09361089FBF81E008950F931F93CF9365
:104D6000DF93FC01738D76957170A685B785958567
:104D7000772329F08C91892309F454C004C08C91C5
:104D8000892309F04FC08389948920E001972FEF90
:104D90008F3F9207D9F7C589D689A685B78515852E
:104DA00060E031E040E050E000E0CE01202F0197CC
:104DB0002FEF8F3F9207D9F78C91812311F0632B4E
:104DC00003C0832F80956823330F4F5F5F4F4830B8
:104DD000510559F78789908D20E001972FEF8F3F7C
:104DE0009207D9F7711160958091A3082091A408CA
:104DF00090E001968F73907030E08217930779F0FE
:104E0000E091A308F0E0ED59F74F60838091A3088B
:104E100090E001968F7390708093A30803C0838DF8
:104E20008160838FDF91CF911F910F9108951F9221
:104E30000F920FB60F9211242F933F934F935F93CE
:104E40006F937F938F939F93AF93BF93EF93FF9352
:104E50008091610890916208009711F00E94AD2640
:104E6000FF91EF91BF91AF919F918F917F916F9142
:104E70005F914F913F912F910F900FBE0F901F9018
:104E80001895CF92DF92EF92FF920F931F93CF93DB
:104E9000DF93EC017A018B011A8E198E188E1F8A0E
:104EA0001E8A1D8A1C8A1B8A20E030E06901CC0C16
:104EB000DD1CC20ED31EB601660F771F660F771F6B
:104EC000AB0149555A4FFA0185919591A591B4913D
:104ED0008E159F05A007B107E9F4FB01E555FA4FD0
:104EE000859194919C8B8B8BFB01E355FA4F8591B7
:104EF00094919E8B8D8BFB01E155FA4F8591949196
:104F0000988F8F8BFB01EF54FA4F859194919A8F74
:104F1000898F06C02F5F3F4F2D30310509F0C6CF76
:104F20008F89988D892B09F457C09C85892F8850CB
:104F3000843038F08650843020F09A51933008F055
:104F400043C0809168008160809368002C85922F17
:104F50009850943090F0822F8E50843070F08C50A6
:104F6000833008F451C0A0E0B0E0833018F0E0E0F6
:104F7000F0E007C0EBE6F0E004C0EBE6F0E0ABE603
:104F8000B0E04081943020F430E02450304013C031
:104F90002E3011F488E016C02F3011F482E012C0D8
:104FA000203111F484E00EC0213111F481E00AC0F7
:104FB00030E02651304081E090E002C0880F991F18
:104FC0002A95E2F7842B8C93898D9A8D20E00197A6
:104FD0002FEF8F3F9207D9F7809161089091620877
:104FE0008C179D07A1F08B8D8E7F8B8F9FB7F894C8
:104FF0001092A3088091A3088093A408D09362081C
:10500000C09361089FBF03C0ABE6B0E0AECFDF91B5
:10501000CF911F910F91FF90EF90DF90CF90089567
:10502000FC012485922F9850943038F0822F8E50B6
:10503000843018F08C50833030F540916B00943000
:1050400020F430E02450304013C02E3011F487EFAC
:1050500017C02F3011F48DEF13C0203111F48BEFF6
:105060000FC0213111F48EEF0BC030E026513040DB
:1050700081E090E002C0880F991F2A95E2F78095A1
:10508000842380936B000895FC0187E195E0918370
:105090008083CF010E9410280895209161083091EB
:1050A00062082817390731F49091A4088091A30869
:1050B000981719F42FEF3FEF0FC0E091A408F0E02C
:1050C000ED59F74F20818091A40890E001968F73ED
:1050D00090708093A40830E0C90108952091610880
:1050E000309162082817390719F020E030E00EC02F
:1050F0008091A3082091A40890E0805C9F4F821BC0
:10510000910960E470E00E940C359C01C90108958A
:105110000F931F93DC0159968D919C915A97892B7F
:1051200049F481E090E013969C938E93129720E0CF
:1051300030E097C00FB7F8945B968C915B975196CF
:10514000ED91FC91529750962C91509781FF8DC014
:105150008081822B808359968D919C915A970596D8
:1051600020E001972FEF8F3F9207D9F75B968C9144
:105170005B9781FF35C031E040E050E070E010E027
:10518000832F90E0862397235196ED91FC915297BF
:1051900050962C915097892B29F0808120952823B7
:1051A000208303C08081822B808359968D919C91AE
:1051B0005A97212F01972FEF8F3F9207D9F7330F7F
:1051C0004F5F5F4F48305105D9F65196ED91FC91F4
:1051D0005297908150968C9150978095892333C037
:1051E00031E040E050E070E010E0832F90E0862353
:1051F00097235196ED91FC91529750962C91509790
:10520000892B21F08081822B808304C080812095AE
:105210002823208359968D919C915A97212F01978D
:105220002FEF8F3F9207D9F7330F4F5F5F4F483013
:105230005105D9F65196ED91FC9152978081509687
:105240009C915097892B80830FBF59968D919C918B
:105250005A9720E001972FEF8F3F9207D9F721E06F
:1052600030E0C9011F910F91089580812095282376
:10527000208371CF20916108309162082817390787
:1052800049F49FB7F8941092A3088091A3088093E3
:10529000A4089FBF089520916108309162082817E3
:1052A000390731F49091A4088091A308981719F454
:1052B0002FEF3FEF0AC0E091A408F0E0ED59F74F5F
:1052C0008081282F332727FD3095C90108951F932A
:1052D000CF93DF93EC01162F862F60E00E94EF2A18
:1052E0008B8D81FD04C0812F61E00E947C2B1C8787
:1052F000212F30E0C9018557994FFC0184918D879A
:105300002359394FF9016491E62FF0E0EE0FFF1FAA
:10531000E15AF94F859194919F878E87DF91CF91C4
:105320001F9108951F93CF93DF93EC01162F862FC3
:1053300061E00E94EF2A60E08B8D81FF61E0812FA8
:105340000E947C2B212F30E0C9018557994FFC0129
:105350008491888B2359394FF9016491E62FF0E04D
:10536000EE0FFF1FEF5AF94F859194919A8B898B1D
:10537000DF91CF911F910895FF920F931F938C019E
:10538000F62EFC011382128288EE93E0A0E0B0E0DA
:1053900084839583A683B78387E195E09183808397
:1053A000148A138A168A158A108E178A128E118E05
:1053B000838D2170220F8C7F822B838FC801642FF5
:1053C0000E949229C8016F2D0E9467291F910F9199
:1053D000FF9008951F920F920FB60F9211242F93F2
:1053E0003F938F939F93AF93BF938091A908909120
:1053F000AA08A091AB08B091AC083091AD08019615
:10540000A11DB11D232F2D5F2D3720F02D570196A3
:10541000A11DB11D2093AD088093A9089093AA08FF
:10542000A093AB08B093AC088091A5089091A60812
:10543000A091A708B091A8080196A11DB11D809365
:10544000A5089093A608A093A708B093A808BF91B9
:10545000AF919F918F913F912F910F900FBE0F9021
:105460001F9018958FB7F8942091A9083091AA0839
:105470004091AB085091AC088FBFB901CA010895A3
:105480009B01AC017FB7F8948091A5089091A60884
:10549000A091A708B091A80866B5A89B05C06F3F6A
:1054A00019F00196A11DB11D7FBFBA2FA92F982F0A
:1054B0008827860F911DA11DB11D62E0880F991FDD
:1054C000AA1FBB1F6A95D1F7BC012DC0FFB7F89486
:1054D0008091A5089091A608A091A708B091A8086E
:1054E000E6B5A89B05C0EF3F19F00196A11DB11DBF
:1054F000FFBFBA2FA92F982F88278E0F911DA11DAE
:10550000B11DE2E0880F991FAA1FBB1FEA95D1F7D2
:10551000861B970B885E9340C8F221503040404074
:10552000504068517C4F211531054105510571F6F8
:105530000895789484B5826084BD84B5816084BD0B
:1055400085B5826085BD85B5816085BDEEE6F0E0FC
:10555000808181608083E1E8F0E010828081826058
:105560008083808181608083E0E8F0E080818160D9
:105570008083E1E9F0E080818260808380818160C6
:105580008083E0E9F0E0808181608083E1ECF0E0FD
:10559000808184608083808182608083808181605B
:1055A0008083E3ECF0E0808181608083E0ECF0E0D8
:1055B000808182608083E2ECF0E080818160808382
:1055C000EAE7F0E08081846080838081826080836C
:1055D0008081816080838081806880830895CF93FB
:1055E000DF93482F50E0CA018557994FFC01349151
:1055F0004359594FFA018491882369F190E0880F4B
:10560000991FFC01ED5BF94FA591B491FC01EF5A94
:10561000F94FC591D491662351F42FB7F8948C912A
:10562000932F909589238C93888189230BC06230B6
:1056300061F42FB7F8948C91932F909589238C93D4
:105640008881832B88832FBF06C09FB7F8948C91E5
:10565000832B8C939FBFDF91CF910895883071F198
:10566000893068F4823031F1833020F4813009F0E0
:1056700042C01DC0833089F08430E9F512C08B3000
:1056800059F18C3028F48930E9F08A30A1F51EC038
:105690008C3031F18E3079F529C0809180008F7780
:1056A00003C0809180008F7D80938000089584B531
:1056B0008F7702C084B58F7D84BD0895809190005E
:1056C0008F7707C0809190008F7D03C080919000FC
:1056D000877F8093900008958091C0008F7703C0EA
:1056E0008091C0008F7D8093C00008958091C2009A
:1056F000877F8093C2000895FF920F931F93F62E29
:10570000482F50E0CA018755994FFC012491CA01E6
:105710008557994FFC0114914359594FFA0104914F
:105720000023C9F0222319F0822F0E942E2BE02F94
:10573000F0E0EE0FFF1FEF5AF94FA591B4919FB71C
:10574000F894FF2021F48C911095812302C08C9154
:10575000812B8C939FBF1F910F91FF9008950F9302
:105760001F93482F50E0CA018755994FFC0124919F
:10577000CA018557994FFC0104914359594FFA01C9
:105780001491112319F420E030E015C0222319F000
:10579000822F0E942E2B812F90E0880F991F815A13
:1057A000994FFC01A591B4918C9120E030E08023C9
:1057B00011F021E030E0C9011F910F910895089583
:1057C000CF93DF930E94992A0E94DF2B86EB98E00B
:1057D0000E94412E0E946510C0E0D0E00E94C212DB
:1057E0002097E1F30E940000F9CF0895CF92DF9255
:1057F000EF92FF920F931F93CF93DF937C016B0186
:105800008A01C0E0D0E00FC0D6016D916D01D701D3
:10581000ED91FC910190F081E02DC7010995C80F31
:10582000D91F015010400115110571F7CE01DF910C
:10583000CF911F910F91FF90EF90DF90CF9008953F
:10584000EF92FF920F931F938C01DC01ED91FC917D
:105850000190F081E02D6DE009957C01D801ED917A
:10586000FC910190F081E02DC8016AE009959C014E
:105870002E0D3F1DC9011F910F91FF90EF900895CC
:10588000CF93DF93EC016115710519F420E030E04E
:105890000FC0DB010D900020E9F71197A61BB70B95
:1058A000E881F9810280F381E02DAD0109959C0129
:1058B000C901DF91CF9108954F925F927F928F92AD
:1058C0009F92AF92BF92CF92DF92EF92FF920F938F
:1058D0001F93DF93CF93CDB7DEB7A1970FB6F894A0
:1058E000DEBF0FBECDBF2C01742ECB01223008F4D9
:1058F0002AE019A231E2C32ED12CCC0EDD1E822E5D
:105900009924AA24BB24672D752FA50194010E9418
:105910001F3579018A01C801B701A50194010E94D0
:10592000ED34472D461B0894C108D1084A3014F4C1
:10593000405D01C0495CF6014083E114F1040105BA
:10594000110521F07E2C5F2DC801DDCFC201B6010B
:105950000E94402CA1960FB6F894DEBF0FBECDBFBB
:10596000CF91DF911F910F91FF90EF90DF90CF903B
:10597000BF90AF909F908F907F905F904F900895D1
:10598000DC012115310541F4ED91FC910190F0818C
:10599000E02D642F099508950E945C2C0895CF9204
:1059A000DF92EF92FF920F931F93CF93DF93EC015F
:1059B0006A017B012115310541F4E881F9810190EB
:1059C000F081E02D642F09951FC02A303105D1F4F4
:1059D00077FF17C0E881F9810190F081E02D6DE239
:1059E00009958C0144275527BA014C195D096E09A8
:1059F0007F09CE012AE00E945C2C9801280F391FF4
:105A000004C02AE00E945C2C9C01C901DF91CF9167
:105A10001F910F91FF90EF90DF90CF900895EF923C
:105A2000FF920F931F937B019A010027F7FC0095CB
:105A3000102FB801A7010E94CF2C1F910F91FF904A
:105A4000EF9008950E94402C0895EF92FF920F93DB
:105A50001F937C010E94402C8C01C7010E94202CC6
:105A6000080F191FC8011F910F91FF90EF90089523
:105A70009FB7F89487708093E9008091F2009FBFF0
:105A80000895282F8091B0088823C1F057FF1AC0CD
:105A900015C028989093AF088091F1008193E21788
:105AA000F307B9F74115510539F08091F2008823C9
:105AB00019F48BE68093E800AFBF02C04FEF5FEFB1
:105AC000CA010895AFB7F89427702093E900809138
:105AD000F200282F30E0241735070CF4A901FB0150
